BL51 BANKED LINKER/LOCATER V6.22.2.0                                                    10/28/2024  10:56:11  PAGE 1


BL51 BANKED LINKER/LOCATER V6.22.2.0, INVOKED BY:
C:\KEIL_V5\C51\BIN\BL51.EXE .\STARTUP_F03.obj, .\main.obj, .\f03_IIC.obj, .\f03_EEPROM.obj, .\LP_lib_tk.obj, .\lib_tk_v2
>> 0.obj, .\tk_api.obj, ..\..\SinoMicon_TK_LIB_V20\LP_TK_key_out_v20.LIB, ..\..\SinoMicon_TK_LIB_V20\TK_key_out_v21.LIB 
>> TO F03F28_11TK RAMSIZE (256)


MEMORY MODEL: SMALL


INPUT MODULES INCLUDED:
  .\STARTUP_F03.obj (?C_STARTUP)
  .\main.obj (MAIN)
  .\f03_IIC.obj (F03_IIC)
  .\f03_EEPROM.obj (F03_EEPROM)
  .\LP_lib_tk.obj (LP_LIB_TK)
  .\lib_tk_v20.obj (LIB_TK_V20)
  .\tk_api.obj (TK_API)
  ..\..\SinoMicon_TK_LIB_V20\LP_TK_key_out_v20.LIB (LP_TK_KEY_OUT_V20)
  ..\..\SinoMicon_TK_LIB_V20\TK_key_out_v21.LIB (TK_KEY_OUTPUT_V21)
  C:\KEIL_V5\C51\LIB\C51S.LIB (?C_INIT)
  C:\KEIL_V5\C51\LIB\C51S.LIB (?C?IMUL)
  C:\KEIL_V5\C51\LIB\C51S.LIB (?C?UIDIV)
  C:\KEIL_V5\C51\LIB\C51S.LIB (?C?IILDX)
  C:\KEIL_V5\C51\LIB\C51S.LIB (?C?OFFXADD)


LINK MAP OF MODULE:  F03F28_11TK (?C_STARTUP)


            TYPE    BASE      LENGTH    RELOCATION   SEGMENT NAME
            -----------------------------------------------------

            * * * * * * *   D A T A   M E M O R Y   * * * * * * *
            REG     0000H     0008H     ABSOLUTE     "REG BANK 0"
            DATA    0008H     0010H     UNIT         ?DT?TK_KEY_OUTPUT_V21
            DATA    0018H     0006H     UNIT         ?DT?F03_IIC
            DATA    001EH     0001H     UNIT         ?DT?LIB_TK_V20
                    001FH     0001H                  *** GAP ***
            BIT     0020H.0   0000H.3   UNIT         ?BI?TK_API
            BIT     0020H.3   0000H.3   UNIT         ?BI?TK_KEY_OUTPUT_V21
            BIT     0020H.6   0000H.2   UNIT         ?BI?MAIN
            BIT     0021H.0   0000H.2   UNIT         ?BI?F03_IIC
                    0021H.2   0000H.6                *** GAP ***
            DATA    0022H     0037H     UNIT         ?DT?MAIN
            DATA    0059H     000CH     UNIT         ?DT?F03_EEPROM
            DATA    0065H     000CH     UNIT         _DATA_GROUP_
            DATA    0071H     0004H     UNIT         ?DT?TK_API
            IDATA   0075H     0021H     UNIT         ?ID?LIB_TK_V20
            IDATA   0096H     0012H     UNIT         ?ID?LP_LIB_TK
            IDATA   00A8H     0001H     UNIT         ?STACK

            * * * * * * *  X D A T A   M E M O R Y  * * * * * * *
            XDATA   0000H     00FDH     UNIT         ?XD?LIB_TK_V20

            * * * * * * *   C O D E   M E M O R Y   * * * * * * *
            CODE    0000H     0003H     ABSOLUTE     
            CODE    0003H     0003H     ABSOLUTE     
            CODE    0006H     002DH     UNIT         ?PR?I2C_INIT?F03_IIC
BL51 BANKED LINKER/LOCATER V6.22.2.0                                                  10/28/2024  10:56:11  PAGE 2


            CODE    0033H     0008H     UNIT         ?PR?_IAP_DATA_RD?F03_EEPROM
            CODE    003BH     0003H     ABSOLUTE     
            CODE    003EH     0003H     UNIT         ?PR?LVD_INTERRUPT?MAIN
                    0041H     0002H                  *** GAP ***
            CODE    0043H     0003H     ABSOLUTE     
                    0046H     0005H                  *** GAP ***
            CODE    004BH     0003H     ABSOLUTE     
            CODE    004EH     0009H     UNIT         ?PR?BUZZER_STOP?MAIN
                    0057H     0004H                  *** GAP ***
            CODE    005BH     0003H     ABSOLUTE     
            CODE    005EH     0B29H     UNIT         ?PR?_TK_KEY_OUT?TK_KEY_OUTPUT_V21
            CODE    0B87H     0275H     UNIT         ?PR?SERIALPORT_INTERRUPT?F03_IIC
            CODE    0DFCH     025BH     UNIT         ?PR?_LP_TK_KEY?LP_TK_KEY_OUT_V20
            CODE    1057H     00EAH     UNIT         ?C_C51STARTUP
            CODE    1141H     00E3H     UNIT         ?PR?KEY_SCAN?TK_API
            CODE    1224H     00DEH     UNIT         ?PR?TK_SCAN?LIB_TK_V20
            CODE    1302H     00D8H     UNIT         ?PR?TK_DATA_STORE?LIB_TK_V20
            CODE    13DAH     00D4H     UNIT         ?PR?SENSORDIFF_SAVE?MAIN
            CODE    14AEH     00B9H     UNIT         ?PR?SENSOR_INI?LIB_TK_V20
            CODE    1567H     00B6H     UNIT         ?PR?LP_TK_SCAN?LP_LIB_TK
            CODE    161DH     0089H     UNIT         ?C?LIB_CODE
            CODE    16A6H     0080H     UNIT         ?PR?TKTHRESHOLD_INI?LIB_TK_V20
            CODE    1726H     007BH     UNIT         ?PR?LP_TK_DATA_STORE?LP_LIB_TK
            CODE    17A1H     0079H     UNIT         ?PR?LP_TKTHRESHOLD_LOAD?TK_API
            CODE    181AH     006CH     UNIT         ?PR?TK_SLEEP_MODE?TK_API
            CODE    1886H     0060H     UNIT         ?PR?_IAP_PROG_EE?F03_EEPROM
            CODE    18E6H     005DH     UNIT         ?PR?DEFAULT_TKTHRESHOLD?TK_API
            CODE    1943H     004DH     UNIT         ?PR?LP_WAKEUP_FLT?TK_API
            CODE    1990H     004AH     UNIT         ?PR?LP_TKINIT?TK_API
            CODE    19DAH     0044H     UNIT         ?PR?KEY_DECODE?MAIN
            CODE    1A1EH     0041H     UNIT         ?PR?MAIN?MAIN
            CODE    1A5FH     0029H     UNIT         ?PR?SETING_FOR_LPMODE?MAIN
            CODE    1A88H     0025H     UNIT         ?PR?SYS_INI?MAIN
            CODE    1AADH     0024H     UNIT         ?PR?BASETIME_INTERRUPT?MAIN
            CODE    1AD1H     0023H     UNIT         ?PR?_DELAYUS?TK_API
            CODE    1AF4H     0022H     UNIT         ?PR?_EEPROM_WRITE?F03_EEPROM
            CODE    1B16H     001FH     UNIT         ?PR?EEPROM_SCAN?F03_EEPROM
            CODE    1B35H     001EH     UNIT         ?PR?PORT_INI?MAIN
            CODE    1B53H     001DH     UNIT         ?PR?RESETING_FOR_NORMAL?MAIN
            CODE    1B70H     001CH     UNIT         ?PR?LOAD_TKTHRESHOLD?TK_API
            CODE    1B8CH     001BH     UNIT         ?PR?_EEPROM_READ?F03_EEPROM
            CODE    1BA7H     001AH     UNIT         ?PR?EXIOINT_INTERRUPT?MAIN
            CODE    1BC1H     0014H     UNIT         ?C_INITSEG
            CODE    1BD5H     0013H     UNIT         ?PR?BASETIME_INIT?MAIN
            CODE    1BE8H     0012H     UNIT         ?PR?IAP_UNLOCK?F03_EEPROM
            CODE    1BFAH     0011H     UNIT         ?PR?TKINIT?TK_API
            CODE    1C0BH     0010H     UNIT         ?PR?IAP_LOCK?F03_EEPROM
            CODE    1C1BH     0006H     UNIT         ?PR?BUZZER_START?MAIN
            CODE    1C21H     0006H     UNIT         ?PR?TK_INTERRUPT?TK_API



OVERLAY MAP OF MODULE:   F03F28_11TK (?C_STARTUP)


SEGMENT                                     DATA_GROUP 
  +--> CALLED SEGMENT                     START    LENGTH
BL51 BANKED LINKER/LOCATER V6.22.2.0                                                  10/28/2024  10:56:11  PAGE 3


---------------------------------------------------------
?C_C51STARTUP                             -----    -----
  +--> ?PR?MAIN?MAIN
  +--> ?C_INITSEG

?PR?MAIN?MAIN                             -----    -----
  +--> ?PR?SYS_INI?MAIN
  +--> ?PR?PORT_INI?MAIN
  +--> ?PR?I2C_INIT?F03_IIC
  +--> ?PR?DEFAULT_TKTHRESHOLD?TK_API
  +--> ?PR?BASETIME_INIT?MAIN
  +--> ?PR?TKINIT?TK_API
  +--> ?PR?KEY_SCAN?TK_API
  +--> ?PR?SENSORDIFF_SAVE?MAIN
  +--> ?PR?KEY_DECODE?MAIN
  +--> ?PR?BUZZER_STOP?MAIN
  +--> ?PR?EEPROM_SCAN?F03_EEPROM

?PR?DEFAULT_TKTHRESHOLD?TK_API            0065H    0001H
  +--> ?PR?TKTHRESHOLD_INI?LIB_TK_V20
  +--> ?PR?_EEPROM_READ?F03_EEPROM
  +--> ?PR?_EEPROM_WRITE?F03_EEPROM

?PR?_EEPROM_READ?F03_EEPROM               -----    -----
  +--> ?PR?IAP_UNLOCK?F03_EEPROM
  +--> ?PR?_IAP_DATA_RD?F03_EEPROM
  +--> ?PR?IAP_LOCK?F03_EEPROM

?PR?_EEPROM_WRITE?F03_EEPROM              -----    -----
  +--> ?PR?IAP_UNLOCK?F03_EEPROM
  +--> ?PR?_IAP_PROG_EE?F03_EEPROM
  +--> ?PR?IAP_LOCK?F03_EEPROM

?PR?_IAP_PROG_EE?F03_EEPROM               0066H    0002H

?PR?TKINIT?TK_API                         -----    -----
  +--> ?PR?SENSOR_INI?LIB_TK_V20
  +--> ?PR?TK_SCAN?LIB_TK_V20

?PR?SENSOR_INI?LIB_TK_V20                 0065H    0001H
  +--> ?PR?TKTHRESHOLD_INI?LIB_TK_V20
  +--> ?PR?TK_SCAN?LIB_TK_V20
  +--> ?PR?TK_DATA_STORE?LIB_TK_V20
  +--> ?PR?_TK_KEY_OUT?TK_KEY_OUTPUT_V21

?PR?_TK_KEY_OUT?TK_KEY_OUTPUT_V21         0066H    000BH

?PR?KEY_SCAN?TK_API                       -----    -----
  +--> ?PR?TK_SLEEP_MODE?TK_API
  +--> ?PR?LP_TK_SCAN?LP_LIB_TK
  +--> ?PR?LP_TK_DATA_STORE?LP_LIB_TK
  +--> ?PR?LP_TKTHRESHOLD_LOAD?TK_API
  +--> ?PR?_LP_TK_KEY?LP_TK_KEY_OUT_V20
  +--> ?PR?LP_WAKEUP_FLT?TK_API
  +--> ?PR?RESETING_FOR_NORMAL?MAIN
  +--> ?PR?TK_SCAN?LIB_TK_V20
  +--> ?PR?TK_DATA_STORE?LIB_TK_V20
BL51 BANKED LINKER/LOCATER V6.22.2.0                                                  10/28/2024  10:56:11  PAGE 4


  +--> ?PR?LOAD_TKTHRESHOLD?TK_API
  +--> ?PR?_TK_KEY_OUT?TK_KEY_OUTPUT_V21
  +--> ?PR?SETING_FOR_LPMODE?MAIN
  +--> ?PR?LP_TKINIT?TK_API

?PR?TK_SLEEP_MODE?TK_API                  -----    -----
  +--> ?PR?_DELAYUS?TK_API

?PR?_LP_TK_KEY?LP_TK_KEY_OUT_V20          0067H    0004H

?PR?LP_WAKEUP_FLT?TK_API                  0065H    0002H
  +--> ?PR?LP_TK_SCAN?LP_LIB_TK
  +--> ?PR?LP_TK_DATA_STORE?LP_LIB_TK
  +--> ?PR?_LP_TK_KEY?LP_TK_KEY_OUT_V20

?PR?RESETING_FOR_NORMAL?MAIN              -----    -----
  +--> ?PR?BASETIME_INIT?MAIN

?PR?LP_TKINIT?TK_API                      -----    -----
  +--> ?PR?TK_SLEEP_MODE?TK_API
  +--> ?PR?_DELAYUS?TK_API
  +--> ?PR?LP_TK_SCAN?LP_LIB_TK
  +--> ?PR?LP_TK_DATA_STORE?LP_LIB_TK
  +--> ?PR?_LP_TK_KEY?LP_TK_KEY_OUT_V20

?PR?SENSORDIFF_SAVE?MAIN                  0065H    0004H

?PR?KEY_DECODE?MAIN                       -----    -----
  +--> ?PR?BUZZER_START?MAIN

?PR?EEPROM_SCAN?F03_EEPROM                -----    -----
  +--> ?PR?_EEPROM_READ?F03_EEPROM
  +--> ?PR?_EEPROM_WRITE?F03_EEPROM



SYMBOL TABLE OF MODULE:  F03F28_11TK (?C_STARTUP)

  VALUE           TYPE          NAME
  ----------------------------------

  -------         MODULE        ?C_STARTUP
  C:1057H         SEGMENT       ?C_C51STARTUP
  I:00A8H         SEGMENT       ?STACK
  C:0000H         PUBLIC        ?C_STARTUP
  D:00E0H         SYMBOL        ACC
  D:00F0H         SYMBOL        B
  D:0083H         SYMBOL        DPH
  D:0082H         SYMBOL        DPL
  N:0000H         SYMBOL        IBPSTACK
  N:0100H         SYMBOL        IBPSTACKTOP
  N:0100H         SYMBOL        IDATALEN
  C:105DH         SYMBOL        IDATALOOP
  N:0000H         SYMBOL        PBPSTACK
  N:0100H         SYMBOL        PBPSTACKTOP
  N:0000H         SYMBOL        PDATALEN
  N:0000H         SYMBOL        PDATASTART
BL51 BANKED LINKER/LOCATER V6.22.2.0                                                  10/28/2024  10:56:11  PAGE 5


  N:0000H         SYMBOL        PPAGE
  N:0000H         SYMBOL        PPAGEENABLE
  D:00A0H         SYMBOL        PPAGE_SFR
  D:0081H         SYMBOL        SP
  C:1057H         SYMBOL        STARTUP1
  N:0000H         SYMBOL        XBPSTACK
  N:0000H         SYMBOL        XBPSTACKTOP
  N:0300H         SYMBOL        XDATALEN
  C:1068H         SYMBOL        XDATALOOP
  N:0000H         SYMBOL        XDATASTART
  C:0000H         LINE#         127
  C:1057H         LINE#         132
  C:105AH         LINE#         135
  C:105CH         LINE#         136
  C:105DH         LINE#         137
  C:105EH         LINE#         138
  C:1060H         LINE#         142
  C:1063H         LINE#         143
  C:1065H         LINE#         147
  C:1067H         LINE#         149
  C:1068H         LINE#         150
  C:1069H         LINE#         151
  C:106AH         LINE#         152
  C:106CH         LINE#         153
  C:106EH         LINE#         187
  C:1071H         LINE#         201
  C:1074H         LINE#         202
  C:1076H         LINE#         203
  C:1077H         LINE#         205
  C:1079H         LINE#         206
  C:107CH         LINE#         207
  C:107DH         LINE#         209
  C:107EH         LINE#         210
  C:1080H         LINE#         211
  C:1081H         LINE#         213
  C:1084H         LINE#         214
  C:1085H         LINE#         216
  C:1088H         LINE#         217
  C:108AH         LINE#         218
  C:108BH         LINE#         220
  C:108EH         LINE#         221
  C:1090H         LINE#         222
  C:1091H         LINE#         223
  C:1094H         LINE#         224
  C:1095H         LINE#         226
  C:1097H         LINE#         227
  C:109AH         LINE#         228
  C:109BH         LINE#         230
  C:109EH         LINE#         231
  C:109FH         LINE#         232
  C:10A1H         LINE#         233
  C:10A2H         LINE#         249
  C:10A5H         LINE#         250
  C:10A8H         LINE#         251
  C:10AAH         LINE#         252
  C:10ABH         LINE#         253
  C:10ADH         LINE#         255
BL51 BANKED LINKER/LOCATER V6.22.2.0                                                  10/28/2024  10:56:11  PAGE 6


  C:10B0H         LINE#         256
  C:10B2H         LINE#         257
  C:10B3H         LINE#         258
  C:10B5H         LINE#         260
  C:10B8H         LINE#         262
  C:10BBH         LINE#         263
  C:10BDH         LINE#         264
  C:10BEH         LINE#         266
  -------         ENDMOD        ?C_STARTUP

  -------         MODULE        MAIN
  C:0000H         SYMBOL        _ICE_DUMMY_
  D:00C0H         PUBLIC        AN_IF
  D:0022H         PUBLIC        Time_x4ms
  C:1BD5H         PUBLIC        BaseTime_Init
  B:00E8H.0       PUBLIC        INT0_IE
  C:13DAH         PUBLIC        SensorDiff_save
  B:0088H.0       PUBLIC        INT0_IF
  B:00E8H.2       PUBLIC        INT2_IE
  B:0088H.2       PUBLIC        INT2_IF
  C:004EH         PUBLIC        Buzzer_Stop
  D:0023H         PUBLIC        Time_x1s
  B:0088H.6       PUBLIC        INT6_IF
  B:00B0H.2       PUBLIC        P3_2
  B:00A8H.2       PUBLIC        TMR2_IF
  B:00B0H.3       PUBLIC        P3_3
  B:00B0H.4       PUBLIC        P3_4
  C:1BA7H         PUBLIC        ExIOINT_interrupt
  C:1A5FH         PUBLIC        Seting_for_LPMode
  C:1B53H         PUBLIC        ReSeting_for_Normal
  D:00B8H         PUBLIC        SERC_IF
  D:0024H         PUBLIC        Buzz_Time
  C:1A1EH         PUBLIC        main
  D:00B8H         PUBLIC        UART_IF
  D:00C8H         PUBLIC        CAPn_IF
  D:00B8H         PUBLIC        IICn_IF
  D:0080H         PUBLIC        P0_DAT
  C:003EH         PUBLIC        LVD_interrupt
  D:0090H         PUBLIC        P1_DAT
  D:0025H         PUBLIC        KeyTime
  D:00A0H         PUBLIC        P2_DAT
  D:00B0H         PUBLIC        P3_DAT
  D:0098H         PUBLIC        EINT0n_IF
  D:00D8H         PUBLIC        EINT1n_IF
  D:00E8H         PUBLIC        INTn_IE
  D:0088H         PUBLIC        INTn_IF
  D:0026H         PUBLIC        Old_key
  D:00B8H         PUBLIC        SPIn_IF
  D:009DH         PUBLIC        TMRn_IE
  C:19DAH         PUBLIC        Key_Decode
  D:00A8H         PUBLIC        TMRn_IF
  D:00C8H         PUBLIC        PWMn_IF
  B:0020H.6       PUBLIC        bTick_1S
  D:00F8H         PUBLIC        INTn_IP
  B:00E8H.7       PUBLIC        GIE
  D:00EFH         PUBLIC        VREF_C
  D:0027H         PUBLIC        tk_base
BL51 BANKED LINKER/LOCATER V6.22.2.0                                                  10/28/2024  10:56:11  PAGE 7


  D:003DH         PUBLIC        Lastkey
  C:1A88H         PUBLIC        Sys_ini
  C:1AADH         PUBLIC        BaseTime_interrupt
  D:003FH         PUBLIC        Threshold_UserSet
  D:004AH         PUBLIC        NotTK_time
  B:0020H.7       PUBLIC        bTick_4ms
  C:1B35H         PUBLIC        port_ini
  D:00B4H         PUBLIC        TMR2_CYH
  D:004BH         PUBLIC        MCU_VERSION
  D:00B3H         PUBLIC        TMR2_CYL
  D:0085H         PUBLIC        WDT_OP
  D:004EH         PUBLIC        Last_SensorDiff
  D:008BH         PUBLIC        P0_OE
  D:008CH         PUBLIC        P1_OE
  D:008DH         PUBLIC        P2_OE
  C:1C1BH         PUBLIC        Buzzer_Start
  D:008EH         PUBLIC        P3_OE
  D:00AEH         PUBLIC        TMR2_C0
  D:00D0H         PUBLIC        PSW
  -------         PROC          MAIN
  C:1A1EH         LINE#         49
  C:1A1EH         LINE#         50
  C:1A1EH         LINE#         51
  C:1A21H         LINE#         52
  C:1A24H         LINE#         55
  C:1A27H         LINE#         56
  C:1A2AH         LINE#         58
  C:1A2DH         LINE#         59
  C:1A2FH         LINE#         62
  C:1A3AH         LINE#         63
  C:1A3AH         LINE#         64
  C:1A3DH         LINE#         65
  C:1A3DH         LINE#         70
  C:1A40H         LINE#         72
  C:1A40H         LINE#         73
  C:1A40H         LINE#         75
  C:1A43H         LINE#         76
  C:1A46H         LINE#         77
  C:1A46H         LINE#         78
  C:1A48H         LINE#         79
  C:1A4BH         LINE#         80
  C:1A4EH         LINE#         81
  C:1A4EH         LINE#         83
  C:1A55H         LINE#         84
  C:1A55H         LINE#         85
  C:1A57H         LINE#         86
  C:1A5AH         LINE#         87
  C:1A5AH         LINE#         89
  C:1A5DH         LINE#         90
  -------         ENDPROC       MAIN
  -------         PROC          PORT_INI
  C:1B35H         LINE#         94
  C:1B35H         LINE#         95
  C:1B35H         LINE#         96
  C:1B38H         LINE#         97
  C:1B3BH         LINE#         98
  C:1B3EH         LINE#         99
BL51 BANKED LINKER/LOCATER V6.22.2.0                                                  10/28/2024  10:56:11  PAGE 8


  C:1B41H         LINE#         101
  C:1B48H         LINE#         102
  C:1B4BH         LINE#         103
  C:1B4EH         LINE#         104
  C:1B50H         LINE#         105
  C:1B52H         LINE#         106
  -------         ENDPROC       PORT_INI
  -------         PROC          SYS_INI
  C:1A88H         LINE#         109
  C:1A88H         LINE#         110
  C:1A88H         LINE#         111
  C:1A8EH         LINE#         112
  C:1A92H         LINE#         113
  C:1A98H         LINE#         115
  C:1AA7H         LINE#         116
  C:1AAAH         LINE#         119
  C:1AACH         LINE#         120
  -------         ENDPROC       SYS_INI
  -------         PROC          SETING_FOR_LPMODE
  C:1A5FH         LINE#         133
  C:1A5FH         LINE#         134
  C:1A5FH         LINE#         135
  C:1A61H         LINE#         137
  C:1A64H         LINE#         138
  C:1A6BH         LINE#         139
  C:1A6FH         LINE#         141
  C:1A72H         LINE#         142
  C:1A78H         LINE#         143
  C:1A7CH         LINE#         144
  C:1A80H         LINE#         147
  C:1A82H         LINE#         148
  C:1A84H         LINE#         150
  C:1A87H         LINE#         151
  -------         ENDPROC       SETING_FOR_LPMODE
  -------         PROC          RESETING_FOR_NORMAL
  C:1B53H         LINE#         158
  C:1B53H         LINE#         159
  C:1B53H         LINE#         160
  C:1B5EH         LINE#         161
  C:1B66H         LINE#         163
  C:1B68H         LINE#         164
  C:1B6AH         LINE#         166
  C:1B6DH         LINE#         167
  C:1B6FH         LINE#         168
  -------         ENDPROC       RESETING_FOR_NORMAL
  -------         PROC          BUZZER_START
  C:1C1BH         LINE#         174
  C:1C1BH         LINE#         175
  C:1C1BH         LINE#         176
  C:1C1EH         LINE#         177
  C:1C20H         LINE#         178
  -------         ENDPROC       BUZZER_START
  -------         PROC          BUZZER_STOP
  C:004EH         LINE#         180
  C:004EH         LINE#         181
  C:004EH         LINE#         182
  C:0054H         LINE#         183
BL51 BANKED LINKER/LOCATER V6.22.2.0                                                  10/28/2024  10:56:11  PAGE 9


  C:0054H         LINE#         184
  C:0056H         LINE#         185
  C:0056H         LINE#         186
  -------         ENDPROC       BUZZER_STOP
  -------         PROC          KEY_DECODE
  C:19DAH         LINE#         208
  C:19DAH         LINE#         209
  C:19DAH         LINE#         210
  C:19E6H         LINE#         211
  C:19E6H         LINE#         212
  C:19ECH         LINE#         214
  C:19F1H         LINE#         215
  C:19F1H         LINE#         216
  C:19F3H         LINE#         217
  C:19FFH         LINE#         218
  C:19FFH         LINE#         219
  C:19FFH         LINE#         220
  C:19FFH         LINE#         221
  C:1A01H         LINE#         223
  C:1A01H         LINE#         224
  C:1A03H         LINE#         225
  C:1A15H         LINE#         226
  C:1A15H         LINE#         227
  C:1A18H         LINE#         228
  C:1A18H         LINE#         229
  C:1A18H         LINE#         262
  C:1A1AH         LINE#         263
  C:1A1BH         LINE#         265
  C:1A1BH         LINE#         267
  C:1A1BH         LINE#         268
  C:1A1DH         LINE#         269
  C:1A1DH         LINE#         270
  C:1A1DH         LINE#         272
  -------         ENDPROC       KEY_DECODE
  -------         PROC          SENSORDIFF_SAVE
  -------         DO            
  D:0005H         SYMBOL        i
  D:0065H         SYMBOL        tk_bits
  D:0067H         SYMBOL        SensorDiff
  -------         ENDDO         
  C:13DAH         LINE#         281
  C:13DAH         LINE#         282
  C:13DAH         LINE#         289
  C:13E6H         LINE#         290
  C:13E6H         LINE#         291
  C:1405H         LINE#         292
  C:1408H         LINE#         294
  C:1411H         LINE#         295
  C:1411H         LINE#         296
  C:1417H         LINE#         297
  C:1426H         LINE#         298
  C:1426H         LINE#         300
  C:142BH         LINE#         301
  C:1459H         LINE#         302
  C:1459H         LINE#         303
  C:1476H         LINE#         304
  C:1481H         LINE#         305
BL51 BANKED LINKER/LOCATER V6.22.2.0                                                  10/28/2024  10:56:11  PAGE 10


  C:1481H         LINE#         306
  C:1487H         LINE#         307
  C:1487H         LINE#         308
  C:1487H         LINE#         310
  C:1499H         LINE#         311
  C:1499H         LINE#         312
  C:149BH         LINE#         313
  C:149BH         LINE#         315
  C:14A6H         LINE#         316
  C:14AAH         LINE#         317
  C:14ADH         LINE#         318
  C:14ADH         LINE#         326
  -------         ENDPROC       SENSORDIFF_SAVE
  -------         PROC          EXIOINT_INTERRUPT
  C:1BA7H         LINE#         331
  C:1BADH         LINE#         333
  C:1BAFH         LINE#         334
  C:1BB1H         LINE#         335
  C:1BB6H         LINE#         336
  C:1BB8H         LINE#         338
  C:1BBAH         LINE#         339
  -------         ENDPROC       EXIOINT_INTERRUPT
  -------         PROC          BASETIME_INIT
  C:1BD5H         LINE#         344
  C:1BD5H         LINE#         345
  C:1BD5H         LINE#         346
  C:1BD8H         LINE#         347
  C:1BDBH         LINE#         348
  C:1BDEH         LINE#         349
  C:1BE1H         LINE#         351
  C:1BE3H         LINE#         353
  C:1BE5H         LINE#         354
  C:1BE7H         LINE#         355
  -------         ENDPROC       BASETIME_INIT
  -------         PROC          BASETIME_INTERRUPT
  C:1AADH         LINE#         358
  C:1AB1H         LINE#         360
  C:1AB4H         LINE#         361
  C:1AB4H         LINE#         362
  C:1AB6H         LINE#         364
  C:1AB8H         LINE#         365
  C:1AC5H         LINE#         366
  C:1AC5H         LINE#         367
  C:1AC8H         LINE#         368
  C:1ACAH         LINE#         369
  C:1ACAH         LINE#         370
  C:1ACAH         LINE#         372
  C:1ACCH         LINE#         373
  -------         ENDPROC       BASETIME_INTERRUPT
  -------         PROC          LVD_INTERRUPT
  C:003EH         LINE#         377
  C:003EH         LINE#         379
  C:0040H         LINE#         380
  -------         ENDPROC       LVD_INTERRUPT
  -------         ENDMOD        MAIN

  -------         MODULE        F03_IIC
BL51 BANKED LINKER/LOCATER V6.22.2.0                                                  10/28/2024  10:56:11  PAGE 11


  C:0000H         SYMBOL        _ICE_DUMMY_
  D:00C0H         PUBLIC        AN_IF
  C:0B87H         PUBLIC        serialPort_interrupt
  D:00DEH         PUBLIC        IIC0_DATA
  D:00DDH         PUBLIC        IIC0_ADDR
  B:00E8H.3       PUBLIC        INT3_IE
  B:0088H.5       PUBLIC        INT5_IF
  B:0021H.0       PUBLIC        bIIC_nWrite_addr
  D:0018H         PUBLIC        PowerStatus
  B:00F8H.3       PUBLIC        INT3_IP
  D:00B8H         PUBLIC        SERC_IF
  D:00DCH         PUBLIC        IIC_STA
  D:00B8H         PUBLIC        UART_IF
  D:009FH         PUBLIC        IICn_IE
  D:00C8H         PUBLIC        CAPn_IF
  D:00B8H         PUBLIC        IICn_IF
  C:0006H         PUBLIC        I2C_Init
  D:0019H         PUBLIC        Version_m
  D:0080H         PUBLIC        P0_DAT
  D:001AH         PUBLIC        Version_p
  D:0090H         PUBLIC        P1_DAT
  D:001BH         PUBLIC        I2C_RegAddr
  D:00A0H         PUBLIC        P2_DAT
  D:00B0H         PUBLIC        P3_DAT
  D:0098H         PUBLIC        EINT0n_IF
  D:001CH         PUBLIC        Version_v
  D:00D8H         PUBLIC        EINT1n_IF
  D:00E8H         PUBLIC        INTn_IE
  B:00B8H.0       PUBLIC        RX0_IF
  D:0088H         PUBLIC        INTn_IF
  D:00B8H         PUBLIC        SPIn_IF
  B:00B8H.1       PUBLIC        TX0_IF
  D:001DH         PUBLIC        Reg_P
  D:00DCH         PUBLIC        IIC0_STA
  D:00A8H         PUBLIC        TMRn_IF
  D:00C8H         PUBLIC        PWMn_IF
  D:00F8H         PUBLIC        INTn_IP
  D:00DAH         PUBLIC        IIC0_C0
  D:00DBH         PUBLIC        IIC0_C1
  B:00B8H.4       PUBLIC        IIC0_IF
  B:0021H.1       PUBLIC        bIIC_Active
  D:00D0H         PUBLIC        PSW
  -------         PROC          I2C_INIT
  C:0006H         LINE#         32
  C:0006H         LINE#         33
  C:0006H         LINE#         34
  C:0011H         LINE#         35
  C:0019H         LINE#         36
  C:0020H         LINE#         39
  C:0023H         LINE#         40
  C:0026H         LINE#         41
  C:0029H         LINE#         43
  C:002BH         LINE#         44
  C:002EH         LINE#         46
  C:0030H         LINE#         47
  C:0032H         LINE#         48
  -------         ENDPROC       I2C_INIT
BL51 BANKED LINKER/LOCATER V6.22.2.0                                                  10/28/2024  10:56:11  PAGE 12


  -------         PROC          SERIALPORT_INTERRUPT
  -------         DO            
  D:0007H         SYMBOL        uData
  -------         ENDDO         
  C:0B87H         LINE#         60
  C:0B98H         LINE#         65
  C:0B9BH         LINE#         66
  C:0B9BH         LINE#         67
  C:0B9DH         LINE#         68
  C:0B9DH         LINE#         71
  C:0BA0H         LINE#         72
  C:0BA0H         LINE#         73
  C:0BA2H         LINE#         74
  C:0BA2H         LINE#         86
  C:0BA8H         LINE#         87
  C:0BA8H         LINE#         88
  C:0BAAH         LINE#         90
  C:0BB2H         LINE#         91
  C:0BB2H         LINE#         92
  C:0BBFH         LINE#         93
  C:0BBFH         LINE#         94
  C:0BD5H         LINE#         95
  C:0BD5H         LINE#         97
  C:0BDCH         LINE#         98
  C:0BDEH         LINE#         99
  C:0BECH         LINE#         100
  C:0BECH         LINE#         101
  C:0BEFH         LINE#         102
  C:0BEFH         LINE#         103
  C:0BF2H         LINE#         104
  C:0BFBH         LINE#         105
  C:0BFBH         LINE#         106
  C:0BFEH         LINE#         107
  C:0C01H         LINE#         108
  C:0C0CH         LINE#         109
  C:0C0CH         LINE#         110
  C:0C12H         LINE#         111
  C:0C12H         LINE#         112
  C:0C15H         LINE#         113
  C:0C18H         LINE#         114
  C:0C1BH         LINE#         116
  C:0C1BH         LINE#         117
  C:0C1FH         LINE#         118
  C:0C22H         LINE#         119
  C:0C22H         LINE#         120
  C:0C25H         LINE#         121
  C:0C33H         LINE#         122
  C:0C33H         LINE#         123
  C:0C3BH         LINE#         124
  C:0C3DH         LINE#         125
  C:0C4BH         LINE#         126
  C:0C4BH         LINE#         127
  C:0C4EH         LINE#         128
  C:0C4EH         LINE#         129
  C:0C51H         LINE#         130
  C:0C5CH         LINE#         131
  C:0C5CH         LINE#         132
BL51 BANKED LINKER/LOCATER V6.22.2.0                                                  10/28/2024  10:56:11  PAGE 13


  C:0C64H         LINE#         133
  C:0C66H         LINE#         134
  C:0C74H         LINE#         135
  C:0C74H         LINE#         136
  C:0C77H         LINE#         137
  C:0C77H         LINE#         138
  C:0C7AH         LINE#         140
  C:0C88H         LINE#         141
  C:0C88H         LINE#         142
  C:0C91H         LINE#         143
  C:0C93H         LINE#         144
  C:0C9DH         LINE#         145
  C:0C9DH         LINE#         146
  C:0CA0H         LINE#         147
  C:0CA3H         LINE#         148
  C:0CA3H         LINE#         149
  C:0CA6H         LINE#         150
  C:0CB1H         LINE#         151
  C:0CB1H         LINE#         152
  C:0CBAH         LINE#         153
  C:0CBCH         LINE#         154
  C:0CC6H         LINE#         155
  C:0CC6H         LINE#         156
  C:0CC9H         LINE#         157
  C:0CCCH         LINE#         158
  C:0CCCH         LINE#         159
  C:0CCFH         LINE#         161
  C:0CCFH         LINE#         162
  C:0CD2H         LINE#         163
  C:0CD2H         LINE#         164
  C:0CD2H         LINE#         166
  C:0CD2H         LINE#         167
  C:0CD5H         LINE#         169
  C:0CD5H         LINE#         171
  C:0CD7H         LINE#         173
  C:0CDCH         LINE#         174
  C:0CDCH         LINE#         175
  C:0CDEH         LINE#         176
  C:0CE1H         LINE#         177
  C:0CE7H         LINE#         178
  C:0CE7H         LINE#         179
  C:0CFCH         LINE#         180
  C:0CFCH         LINE#         182
  C:0CFCH         LINE#         184
  C:0CFCH         LINE#         185
  C:0CFEH         LINE#         186
  C:0CFEH         LINE#         188
  C:0D0CH         LINE#         189
  C:0D0CH         LINE#         190
  C:0D10H         LINE#         191
  C:0D10H         LINE#         192
  C:0D12H         LINE#         193
  C:0D18H         LINE#         194
  C:0D18H         LINE#         195
  C:0D1BH         LINE#         196
  C:0D1DH         LINE#         197
  C:0D2BH         LINE#         198
BL51 BANKED LINKER/LOCATER V6.22.2.0                                                  10/28/2024  10:56:11  PAGE 14


  C:0D2BH         LINE#         199
  C:0D2EH         LINE#         200
  C:0D30H         LINE#         201
  C:0D3BH         LINE#         202
  C:0D3BH         LINE#         203
  C:0D3FH         LINE#         204
  C:0D3FH         LINE#         205
  C:0D41H         LINE#         206
  C:0D4FH         LINE#         207
  C:0D4FH         LINE#         208
  C:0D53H         LINE#         209
  C:0D53H         LINE#         210
  C:0D55H         LINE#         211
  C:0D60H         LINE#         212
  C:0D60H         LINE#         213
  C:0D64H         LINE#         214
  C:0D64H         LINE#         215
  C:0D66H         LINE#         216
  C:0D71H         LINE#         217
  C:0D71H         LINE#         218
  C:0D77H         LINE#         219
  C:0D7BH         LINE#         220
  C:0D7BH         LINE#         222
  C:0D7DH         LINE#         223
  C:0D7FH         LINE#         224
  C:0D88H         LINE#         225
  C:0D88H         LINE#         226
  C:0D8AH         LINE#         227
  C:0D8CH         LINE#         228
  C:0DA1H         LINE#         229
  C:0DA1H         LINE#         230
  C:0DA8H         LINE#         231
  C:0DAAH         LINE#         232
  C:0DB5H         LINE#         233
  C:0DB5H         LINE#         234
  C:0DB8H         LINE#         235
  C:0DB8H         LINE#         236
  C:0DBAH         LINE#         237
  C:0DCFH         LINE#         238
  C:0DCFH         LINE#         239
  C:0DD6H         LINE#         240
  C:0DD8H         LINE#         241
  C:0DE3H         LINE#         242
  C:0DE3H         LINE#         243
  C:0DE6H         LINE#         244
  C:0DE6H         LINE#         245
  C:0DE6H         LINE#         247
  C:0DE9H         LINE#         248
  C:0DE9H         LINE#         250
  C:0DEBH         LINE#         251
  C:0DEBH         LINE#         259
  C:0DEDH         LINE#         260
  -------         ENDPROC       SERIALPORT_INTERRUPT
  -------         ENDMOD        F03_IIC

  -------         MODULE        F03_EEPROM
  C:0000H         SYMBOL        _ICE_DUMMY_
BL51 BANKED LINKER/LOCATER V6.22.2.0                                                  10/28/2024  10:56:11  PAGE 15


  D:00C0H         PUBLIC        AN_IF
  D:0059H         PUBLIC        eeprom_data
  C:1BE8H         PUBLIC        IAP_UNLOCK
  D:005AH         PUBLIC        rSN
  D:00B8H         PUBLIC        SERC_IF
  C:1B8CH         PUBLIC        _EEPROM_Read
  D:00B8H         PUBLIC        UART_IF
  D:005EH         PUBLIC        read_pw_st
  C:1B16H         PUBLIC        EEPROM_Scan
  D:00C8H         PUBLIC        CAPn_IF
  D:00B8H         PUBLIC        IICn_IF
  C:1AF4H         PUBLIC        _EEPROM_Write
  D:0080H         PUBLIC        P0_DAT
  D:0090H         PUBLIC        P1_DAT
  D:00A0H         PUBLIC        P2_DAT
  D:00B0H         PUBLIC        P3_DAT
  D:005FH         PUBLIC        write_pw_st
  D:0098H         PUBLIC        EINT0n_IF
  D:00D8H         PUBLIC        EINT1n_IF
  D:0060H         PUBLIC        cnt
  D:00E8H         PUBLIC        INTn_IE
  D:0088H         PUBLIC        INTn_IF
  D:00B8H         PUBLIC        SPIn_IF
  C:0033H         PUBLIC        _IAP_DATA_RD
  D:00A8H         PUBLIC        TMRn_IF
  D:00C8H         PUBLIC        PWMn_IF
  D:00F8H         PUBLIC        INTn_IP
  D:0061H         PUBLIC        rUID
  B:00E8H.7       PUBLIC        GIE
  C:1886H         PUBLIC        _IAP_PROG_EE
  C:1C0BH         PUBLIC        IAP_LOCK
  D:0085H         PUBLIC        WDT_OP
  D:00D0H         PUBLIC        PSW
  -------         PROC          IAP_UNLOCK
  -------         DO            
  D:0007H         SYMBOL        pass
  -------         ENDDO         
  C:1BE8H         LINE#         23
  C:1BE8H         LINE#         24
  C:1BE8H         LINE#         26
  C:1BEAH         LINE#         27
  C:1BF0H         LINE#         28
  C:1BF5H         LINE#         29
  C:1BF5H         LINE#         30
  C:1BF6H         LINE#         31
  C:1BF7H         LINE#         33
  C:1BF7H         LINE#         34
  C:1BF9H         LINE#         35
  C:1BF9H         LINE#         36
  C:1BF9H         LINE#         37
  -------         ENDPROC       IAP_UNLOCK
  -------         PROC          IAP_LOCK
  -------         DO            
  D:0007H         SYMBOL        pass
  -------         ENDDO         
  C:1C0BH         LINE#         46
  C:1C0BH         LINE#         47
BL51 BANKED LINKER/LOCATER V6.22.2.0                                                  10/28/2024  10:56:11  PAGE 16


  C:1C0BH         LINE#         49
  C:1C0DH         LINE#         50
  C:1C13H         LINE#         51
  C:1C16H         LINE#         52
  C:1C16H         LINE#         53
  C:1C17H         LINE#         54
  C:1C18H         LINE#         56
  C:1C18H         LINE#         57
  C:1C1AH         LINE#         58
  C:1C1AH         LINE#         59
  C:1C1AH         LINE#         60
  -------         ENDPROC       IAP_LOCK
  -------         PROC          _IAP_PROG_EE
  D:0002H         SYMBOL        addr
  D:0005H         SYMBOL        din
  -------         DO            
  D:0004H         SYMBOL        PROG_tmp_data
  D:0066H         SYMBOL        ov_cnt
  -------         ENDDO         
  C:1886H         LINE#         69
  C:188AH         LINE#         70
  C:188AH         LINE#         72
  C:188FH         LINE#         73
  C:1895H         LINE#         74
  C:189BH         LINE#         75
  C:189FH         LINE#         76
  C:189FH         LINE#         77
  C:18A2H         LINE#         78
  C:18AAH         LINE#         79
  C:18B3H         LINE#         80
  C:18B3H         LINE#         81
  C:18B6H         LINE#         82
  C:18B6H         LINE#         84
  C:18BBH         LINE#         85
  C:18BEH         LINE#         86
  C:18C1H         LINE#         87
  C:18C9H         LINE#         88
  C:18C9H         LINE#         89
  C:18CCH         LINE#         90
  C:18CCH         LINE#         91
  C:18D2H         LINE#         92
  C:18D6H         LINE#         93
  C:18DBH         LINE#         94
  C:18E1H         LINE#         95
  C:18E3H         LINE#         96
  C:18E5H         LINE#         97
  -------         ENDPROC       _IAP_PROG_EE
  -------         PROC          _IAP_DATA_RD
  D:0082H         SYMBOL        addr
  -------         DO            
  D:0007H         SYMBOL        RD_tmp_data
  -------         ENDDO         
  C:0033H         LINE#         106
  C:0037H         LINE#         107
  C:0037H         LINE#         109
  C:003AH         LINE#         110
  C:003AH         LINE#         111
BL51 BANKED LINKER/LOCATER V6.22.2.0                                                  10/28/2024  10:56:11  PAGE 17


  -------         ENDPROC       _IAP_DATA_RD
  -------         PROC          _EEPROM_WRITE
  D:0002H         SYMBOL        addr
  D:0005H         SYMBOL        din
  C:1AF4H         LINE#         160
  C:1AF8H         LINE#         161
  C:1AF8H         LINE#         162
  C:1AFEH         LINE#         163
  C:1AFEH         LINE#         164
  C:1B00H         LINE#         165
  C:1B00H         LINE#         167
  C:1B0AH         LINE#         168
  C:1B0AH         LINE#         169
  C:1B0DH         LINE#         170
  C:1B10H         LINE#         171
  C:1B10H         LINE#         172
  C:1B13H         LINE#         173
  C:1B15H         LINE#         175
  -------         ENDPROC       _EEPROM_WRITE
  -------         PROC          _EEPROM_READ
  D:0004H         SYMBOL        addr
  -------         DO            
  D:0006H         SYMBOL        read_data
  -------         ENDDO         
  C:1B8CH         LINE#         184
  C:1B90H         LINE#         185
  C:1B90H         LINE#         187
  C:1B96H         LINE#         188
  C:1B96H         LINE#         189
  C:1B98H         LINE#         190
  C:1B98H         LINE#         191
  C:1BA1H         LINE#         192
  C:1BA4H         LINE#         193
  C:1BA6H         LINE#         194
  -------         ENDPROC       _EEPROM_READ
  -------         PROC          EEPROM_SCAN
  C:1B16H         LINE#         196
  C:1B16H         LINE#         197
  C:1B16H         LINE#         200
  C:1B29H         LINE#         201
  C:1B29H         LINE#         202
  C:1B2BH         LINE#         203
  C:1B32H         LINE#         204
  C:1B34H         LINE#         205
  C:1B34H         LINE#         222
  -------         ENDPROC       EEPROM_SCAN
  -------         ENDMOD        F03_EEPROM

  -------         MODULE        LP_LIB_TK
  C:0000H         SYMBOL        _ICE_DUMMY_
  D:00C0H         PUBLIC        AN_IF
  I:0096H         PUBLIC        LP_BaseLine
  I:009EH         PUBLIC        LP_ScanTimes
  B:00C0H.1       PUBLIC        TK_IF
  B:0080H.5       PUBLIC        P0_5
  D:00EEH         PUBLIC        TK_CHEH
  D:00ECH         PUBLIC        TK_CHEL
BL51 BANKED LINKER/LOCATER V6.22.2.0                                                  10/28/2024  10:56:11  PAGE 18


  D:00EDH         PUBLIC        TK_CHEM
  D:00B8H         PUBLIC        SERC_IF
  C:1567H         PUBLIC        LP_TK_scan
  I:009FH         PUBLIC        fast_track
  D:00B8H         PUBLIC        UART_IF
  D:00F2H         PUBLIC        TK_CNTH
  D:0087H         PUBLIC        PCON
  D:00F1H         PUBLIC        TK_CNTL
  D:00C8H         PUBLIC        CAPn_IF
  D:00B8H         PUBLIC        IICn_IF
  D:0080H         PUBLIC        P0_DAT
  D:0090H         PUBLIC        P1_DAT
  D:00A0H         PUBLIC        P2_DAT
  D:00B0H         PUBLIC        P3_DAT
  D:0098H         PUBLIC        EINT0n_IF
  D:00D8H         PUBLIC        EINT1n_IF
  D:00E8H         PUBLIC        INTn_IE
  D:0088H         PUBLIC        INTn_IF
  D:00B8H         PUBLIC        SPIn_IF
  I:00A3H         PUBLIC        LP_TKThreshold
  I:00A7H         PUBLIC        LP_SensorCounted
  D:00A8H         PUBLIC        TMRn_IF
  D:00C8H         PUBLIC        PWMn_IF
  D:00F8H         PUBLIC        INTn_IP
  C:1726H         PUBLIC        LP_tk_data_store
  D:0085H         PUBLIC        WDT_OP
  D:00EAH         PUBLIC        TK_C0
  D:008BH         PUBLIC        P0_OE
  D:008CH         PUBLIC        P1_OE
  D:008DH         PUBLIC        P2_OE
  D:008EH         PUBLIC        P3_OE
  D:00D0H         PUBLIC        PSW
  D:00A1H         PUBLIC        AN_IE
  -------         PROC          LP_TK_SCAN
  -------         DO            
  D:0006H         SYMBOL        ov_cnt
  -------         ENDDO         
  C:1567H         LINE#         12
  C:1567H         LINE#         14
  C:1569H         LINE#         15
  C:1582H         LINE#         16
  C:1585H         LINE#         17
  C:1587H         LINE#         18
  C:1595H         LINE#         20
  C:1595H         LINE#         21
  C:1598H         LINE#         22
  C:1598H         LINE#         23
  C:1598H         LINE#         24
  C:1598H         LINE#         25
  C:159BH         LINE#         26
  C:159EH         LINE#         27
  C:15A0H         LINE#         28
  C:15A4H         LINE#         29
  C:15A6H         LINE#         32
  C:15A6H         LINE#         33
  C:15A6H         LINE#         34
  C:15A9H         LINE#         35
BL51 BANKED LINKER/LOCATER V6.22.2.0                                                  10/28/2024  10:56:11  PAGE 19


  C:15A9H         LINE#         36
  C:15A9H         LINE#         37
  C:15ACH         LINE#         38
  C:15AFH         LINE#         39
  C:15B1H         LINE#         40
  C:15B5H         LINE#         41
  C:15B7H         LINE#         44
  C:15B7H         LINE#         45
  C:15B7H         LINE#         46
  C:15B7H         LINE#         47
  C:15BAH         LINE#         48
  C:15BDH         LINE#         49
  C:15C0H         LINE#         50
  C:15C2H         LINE#         51
  C:15C5H         LINE#         52
  C:15C9H         LINE#         53
  C:15CBH         LINE#         56
  C:15CBH         LINE#         57
  C:15CBH         LINE#         58
  C:15CBH         LINE#         59
  C:15CEH         LINE#         60
  C:15CEH         LINE#         61
  C:15D1H         LINE#         62
  C:15D4H         LINE#         63
  C:15D7H         LINE#         64
  C:15DBH         LINE#         65
  C:15DBH         LINE#         115
  C:15DBH         LINE#         116
  C:15DEH         LINE#         117
  C:15E0H         LINE#         118
  C:15E6H         LINE#         119
  C:15E9H         LINE#         120
  C:15ECH         LINE#         121
  C:15EFH         LINE#         122
  C:15F2H         LINE#         123
  C:15FBH         LINE#         124
  C:15FDH         LINE#         125
  C:1600H         LINE#         126
  C:1605H         LINE#         127
  C:1608H         LINE#         128
  C:1611H         LINE#         129
  C:1614H         LINE#         130
  C:1617H         LINE#         131
  C:1617H         LINE#         132
  C:1617H         LINE#         133
  C:1617H         LINE#         134
  C:161AH         LINE#         135
  C:161CH         LINE#         136
  C:161CH         LINE#         137
  C:161CH         LINE#         138
  C:161CH         LINE#         139
  -------         ENDPROC       LP_TK_SCAN
  -------         PROC          LP_TK_DATA_STORE
  C:1726H         LINE#         140
  C:1726H         LINE#         141
  C:1729H         LINE#         142
  C:172CH         LINE#         143
BL51 BANKED LINKER/LOCATER V6.22.2.0                                                  10/28/2024  10:56:11  PAGE 20


  C:172EH         LINE#         144
  C:1734H         LINE#         145
  C:1744H         LINE#         146
  C:1751H         LINE#         147
  C:1760H         LINE#         148
  C:176EH         LINE#         150
  C:176EH         LINE#         151
  C:1771H         LINE#         152
  C:1771H         LINE#         153
  C:1771H         LINE#         154
  C:1771H         LINE#         155
  C:1773H         LINE#         158
  C:1773H         LINE#         159
  C:1773H         LINE#         160
  C:1776H         LINE#         161
  C:1776H         LINE#         162
  C:1776H         LINE#         163
  C:1778H         LINE#         166
  C:1778H         LINE#         167
  C:1778H         LINE#         168
  C:1778H         LINE#         169
  C:177BH         LINE#         170
  C:177EH         LINE#         171
  C:1780H         LINE#         174
  C:1780H         LINE#         175
  C:1780H         LINE#         176
  C:1780H         LINE#         177
  C:1783H         LINE#         178
  C:1783H         LINE#         179
  C:1785H         LINE#         213
  C:1785H         LINE#         214
  C:1788H         LINE#         215
  C:178AH         LINE#         216
  C:178CH         LINE#         217
  C:178CH         LINE#         218
  C:178CH         LINE#         219
  C:178FH         LINE#         220
  C:1791H         LINE#         221
  C:1791H         LINE#         222
  C:1794H         LINE#         223
  C:1797H         LINE#         224
  C:1797H         LINE#         225
  C:1799H         LINE#         226
  C:179CH         LINE#         227
  C:179EH         LINE#         228
  C:17A0H         LINE#         229
  C:17A0H         LINE#         230
  -------         ENDPROC       LP_TK_DATA_STORE
  -------         ENDMOD        LP_LIB_TK

  -------         MODULE        LIB_TK_V20
  C:0000H         SYMBOL        _ICE_DUMMY_
  D:00C0H         PUBLIC        AN_IF
  X:0000H         PUBLIC        BaseLine
  I:0075H         PUBLIC        SFRDATA
  X:0016H         PUBLIC        TempMoving
  B:00C0H.1       PUBLIC        TK_IF
BL51 BANKED LINKER/LOCATER V6.22.2.0                                                  10/28/2024  10:56:11  PAGE 21


  B:0080H.0       PUBLIC        P0_0
  B:0080H.1       PUBLIC        P0_1
  B:0080H.2       PUBLIC        P0_2
  B:00A0H.1       PUBLIC        P2_1
  B:00A0H.2       PUBLIC        P2_2
  B:0080H.5       PUBLIC        P0_5
  X:0021H         PUBLIC        TempBase
  B:00A0H.4       PUBLIC        P2_4
  B:0090H.5       PUBLIC        P1_5
  B:0090H.6       PUBLIC        P1_6
  B:0090H.7       PUBLIC        P1_7
  B:00B0H.6       PUBLIC        P3_6
  D:00EEH         PUBLIC        TK_CHEH
  B:00B0H.7       PUBLIC        P3_7
  D:00ECH         PUBLIC        TK_CHEL
  D:00EDH         PUBLIC        TK_CHEM
  D:00B8H         PUBLIC        SERC_IF
  C:14AEH         PUBLIC        Sensor_ini
  C:1224H         PUBLIC        TK_scan
  X:0037H         PUBLIC        RawData
  X:004DH         PUBLIC        ConfirmMoveingFlag
  D:00B8H         PUBLIC        UART_IF
  D:00F2H         PUBLIC        TK_CNTH
  X:0058H         PUBLIC        IIR_Filter
  D:00F1H         PUBLIC        TK_CNTL
  D:00C8H         PUBLIC        CAPn_IF
  D:00B8H         PUBLIC        IICn_IF
  D:0080H         PUBLIC        P0_DAT
  D:0090H         PUBLIC        P1_DAT
  D:00A0H         PUBLIC        P2_DAT
  D:00B0H         PUBLIC        P3_DAT
  D:0098H         PUBLIC        EINT0n_IF
  D:00D8H         PUBLIC        EINT1n_IF
  D:00E8H         PUBLIC        INTn_IE
  D:0088H         PUBLIC        INTn_IF
  D:00B8H         PUBLIC        SPIn_IF
  D:00A8H         PUBLIC        TMRn_IF
  I:008BH         PUBLIC        TKThreshold
  D:00C8H         PUBLIC        PWMn_IF
  D:00F8H         PUBLIC        INTn_IP
  D:001EH         PUBLIC        SensorCounted
  D:00EFH         PUBLIC        VREF_C
  C:1302H         PUBLIC        tk_data_store
  X:006EH         PUBLIC        s_data
  D:0085H         PUBLIC        WDT_OP
  D:00EAH         PUBLIC        TK_C0
  D:00E9H         PUBLIC        TK_C1
  X:00DCH         PUBLIC        BaseLineFollowSpeed
  D:00EBH         PUBLIC        TK_C2
  D:008BH         PUBLIC        P0_OE
  C:16A6H         PUBLIC        TKThreshold_ini
  D:008CH         PUBLIC        P1_OE
  X:00E7H         PUBLIC        push_en
  D:008DH         PUBLIC        P2_OE
  D:008EH         PUBLIC        P3_OE
  D:00D0H         PUBLIC        PSW
  X:00F2H         PUBLIC        MovingHold
BL51 BANKED LINKER/LOCATER V6.22.2.0                                                  10/28/2024  10:56:11  PAGE 22


  -------         PROC          TKTHRESHOLD_INI
  -------         DO            
  D:0007H         SYMBOL        i
  -------         ENDDO         
  C:16A6H         LINE#         85
  C:16A6H         LINE#         86
  C:16A6H         LINE#         88
  C:16B2H         LINE#         89
  C:16B2H         LINE#         90
  C:16E0H         LINE#         91
  C:16E0H         LINE#         94
  C:16E0H         LINE#         95
  C:16E6H         LINE#         96
  C:16E8H         LINE#         99
  C:16E8H         LINE#         100
  C:16E8H         LINE#         101
  C:16EAH         LINE#         104
  C:16EAH         LINE#         139
  C:16EAH         LINE#         140
  C:16F0H         LINE#         141
  C:16F2H         LINE#         144
  C:16F2H         LINE#         145
  C:16F2H         LINE#         146
  C:16F4H         LINE#         149
  C:16F4H         LINE#         150
  C:16FAH         LINE#         151
  C:16FCH         LINE#         159
  C:16FCH         LINE#         160
  C:1702H         LINE#         161
  C:1704H         LINE#         164
  C:1704H         LINE#         165
  C:170AH         LINE#         166
  C:170CH         LINE#         174
  C:1712H         LINE#         176
  C:1714H         LINE#         204
  C:1714H         LINE#         205
  C:171AH         LINE#         206
  C:171CH         LINE#         209
  C:171CH         LINE#         210
  C:1722H         LINE#         211
  C:1722H         LINE#         213
  C:1722H         LINE#         214
  C:1722H         LINE#         404
  C:1722H         LINE#         405
  C:1725H         LINE#         407
  -------         ENDPROC       TKTHRESHOLD_INI
  -------         PROC          SENSOR_INI
  -------         DO            
  D:0065H         SYMBOL        int_cnt
  D:0006H         SYMBOL        ov_cnt
  D:0006H         SYMBOL        u16_temp
  D:0005H         SYMBOL        i
  -------         ENDDO         
  C:14AEH         LINE#         416
  C:14AEH         LINE#         417
  C:14AEH         LINE#         423
  C:14B1H         LINE#         424
BL51 BANKED LINKER/LOCATER V6.22.2.0                                                  10/28/2024  10:56:11  PAGE 23


  C:14B3H         LINE#         425
  C:14B6H         LINE#         429
  C:14B9H         LINE#         430
  C:14BCH         LINE#         431
  C:14BFH         LINE#         435
  C:14C2H         LINE#         436
  C:14C4H         LINE#         438
  C:14C6H         LINE#         439
  C:14C9H         LINE#         441
  C:14CCH         LINE#         442
  C:14D7H         LINE#         443
  C:14D7H         LINE#         444
  C:14DAH         LINE#         445
  C:14DDH         LINE#         446
  C:14E8H         LINE#         447
  C:14E8H         LINE#         448
  C:14EBH         LINE#         449
  C:14EEH         LINE#         450
  C:14F1H         LINE#         451
  C:14F1H         LINE#         452
  C:14F6H         LINE#         453
  C:14F9H         LINE#         454
  C:1502H         LINE#         455
  C:1502H         LINE#         456
  C:1505H         LINE#         457
  C:1508H         LINE#         458
  C:1508H         LINE#         459
  C:1508H         LINE#         460
  C:1508H         LINE#         461
  C:150BH         LINE#         462
  C:150DH         LINE#         464
  C:151FH         LINE#         465
  C:1531H         LINE#         466
  C:1533H         LINE#         467
  C:1535H         LINE#         468
  C:1538H         LINE#         471
  C:153AH         LINE#         472
  C:1545H         LINE#         473
  C:1545H         LINE#         474
  C:154FH         LINE#         475
  C:1552H         LINE#         477
  C:1559H         LINE#         483
  C:1560H         LINE#         486
  C:1564H         LINE#         491
  C:1566H         LINE#         492
  -------         ENDPROC       SENSOR_INI
  -------         PROC          TK_SCAN
  C:1224H         LINE#         501
  C:1224H         LINE#         502
  C:1224H         LINE#         503
  C:1226H         LINE#         504
  C:123DH         LINE#         505
  C:123DH         LINE#         506
  C:1240H         LINE#         507
  C:1242H         LINE#         508
  C:1274H         LINE#         509
  C:1274H         LINE#         512
BL51 BANKED LINKER/LOCATER V6.22.2.0                                                  10/28/2024  10:56:11  PAGE 24


  C:1274H         LINE#         513
  C:1277H         LINE#         514
  C:127AH         LINE#         515
  C:127AH         LINE#         516
  C:127AH         LINE#         517
  C:127CH         LINE#         521
  C:127CH         LINE#         522
  C:127FH         LINE#         523
  C:1282H         LINE#         524
  C:1282H         LINE#         525
  C:1282H         LINE#         526
  C:1284H         LINE#         529
  C:1284H         LINE#         530
  C:1287H         LINE#         531
  C:128AH         LINE#         532
  C:128DH         LINE#         533
  C:128FH         LINE#         534
  C:1291H         LINE#         586
  C:1291H         LINE#         587
  C:1294H         LINE#         588
  C:1297H         LINE#         589
  C:1297H         LINE#         590
  C:1297H         LINE#         591
  C:1299H         LINE#         594
  C:1299H         LINE#         595
  C:129CH         LINE#         596
  C:129FH         LINE#         597
  C:12A2H         LINE#         598
  C:12A4H         LINE#         599
  C:12A6H         LINE#         602
  C:12A6H         LINE#         603
  C:12A9H         LINE#         604
  C:12ACH         LINE#         605
  C:12AFH         LINE#         606
  C:12B1H         LINE#         607
  C:12B3H         LINE#         618
  C:12B3H         LINE#         619
  C:12B6H         LINE#         620
  C:12B9H         LINE#         621
  C:12B9H         LINE#         622
  C:12B9H         LINE#         623
  C:12BBH         LINE#         626
  C:12BBH         LINE#         627
  C:12BEH         LINE#         628
  C:12C1H         LINE#         629
  C:12C2H         LINE#         630
  C:12C2H         LINE#         631
  C:12C4H         LINE#         642
  C:12C4H         LINE#         643
  C:12C7H         LINE#         644
  C:12CAH         LINE#         645
  C:12CDH         LINE#         646
  C:12CFH         LINE#         647
  C:12D1H         LINE#         690
  C:12D1H         LINE#         691
  C:12D4H         LINE#         692
  C:12D7H         LINE#         693
BL51 BANKED LINKER/LOCATER V6.22.2.0                                                  10/28/2024  10:56:11  PAGE 25


  C:12D7H         LINE#         694
  C:12D7H         LINE#         695
  C:12D9H         LINE#         698
  C:12D9H         LINE#         699
  C:12DCH         LINE#         700
  C:12DFH         LINE#         701
  C:12E2H         LINE#         702
  C:12E4H         LINE#         703
  C:12E6H         LINE#         705
  C:12E6H         LINE#         706
  C:12E9H         LINE#         707
  C:12EBH         LINE#         708
  C:12EDH         LINE#         709
  C:12EDH         LINE#         979
  C:12EDH         LINE#         980
  C:12F0H         LINE#         981
  C:12F2H         LINE#         982
  C:12F8H         LINE#         983
  C:12F8H         LINE#         984
  C:12FBH         LINE#         985
  C:12FBH         LINE#         986
  C:12FEH         LINE#         987
  C:1301H         LINE#         988
  C:1301H         LINE#         989
  C:1301H         LINE#         990
  C:1301H         LINE#         991
  -------         ENDPROC       TK_SCAN
  -------         PROC          TK_DATA_STORE
  -------         DO            
  D:0006H         SYMBOL        u16_temp
  -------         ENDDO         
  C:1302H         LINE#         999
  C:1302H         LINE#         1000
  C:1302H         LINE#         1003
  C:1308H         LINE#         1004
  C:1308H         LINE#         1005
  C:130BH         LINE#         1006
  C:130DH         LINE#         1007
  C:1313H         LINE#         1008
  C:1313H         LINE#         1009
  C:1315H         LINE#         1010
  C:1319H         LINE#         1011
  C:1321H         LINE#         1012
  C:132DH         LINE#         1013
  C:132FH         LINE#         1015
  C:132FH         LINE#         1016
  C:1332H         LINE#         1017
  C:1335H         LINE#         1019
  C:1340H         LINE#         1020
  C:1340H         LINE#         1023
  C:136FH         LINE#         1024
  C:136FH         LINE#         1027
  C:136FH         LINE#         1028
  C:1372H         LINE#         1029
  C:1374H         LINE#         1030
  C:1376H         LINE#         1033
  C:1376H         LINE#         1034
BL51 BANKED LINKER/LOCATER V6.22.2.0                                                  10/28/2024  10:56:11  PAGE 26


  C:1379H         LINE#         1035
  C:137BH         LINE#         1036
  C:137DH         LINE#         1039
  C:137DH         LINE#         1040
  C:1380H         LINE#         1041
  C:1382H         LINE#         1042
  C:1384H         LINE#         1081
  C:1384H         LINE#         1082
  C:1387H         LINE#         1083
  C:1389H         LINE#         1084
  C:138BH         LINE#         1087
  C:138BH         LINE#         1088
  C:138EH         LINE#         1089
  C:1390H         LINE#         1090
  C:1392H         LINE#         1093
  C:1392H         LINE#         1094
  C:1395H         LINE#         1095
  C:1397H         LINE#         1096
  C:1399H         LINE#         1106
  C:1399H         LINE#         1107
  C:139CH         LINE#         1108
  C:139EH         LINE#         1109
  C:13A0H         LINE#         1112
  C:13A0H         LINE#         1113
  C:13A3H         LINE#         1114
  C:13A5H         LINE#         1115
  C:13A7H         LINE#         1124
  C:13A7H         LINE#         1125
  C:13AAH         LINE#         1126
  C:13ACH         LINE#         1127
  C:13AEH         LINE#         1160
  C:13AEH         LINE#         1161
  C:13B1H         LINE#         1162
  C:13B3H         LINE#         1163
  C:13B5H         LINE#         1166
  C:13B5H         LINE#         1167
  C:13B8H         LINE#         1168
  C:13BAH         LINE#         1169
  C:13BCH         LINE#         1171
  C:13BCH         LINE#         1172
  C:13BFH         LINE#         1173
  C:13C1H         LINE#         1174
  C:13C3H         LINE#         1175
  C:13C3H         LINE#         1413
  C:13C3H         LINE#         1415
  C:13C5H         LINE#         1417
  C:13C7H         LINE#         1418
  C:13CAH         LINE#         1421
  C:13CCH         LINE#         1424
  C:13CEH         LINE#         1426
  C:13CEH         LINE#         1428
  C:13D3H         LINE#         1429
  C:13D3H         LINE#         1430
  C:13D6H         LINE#         1431
  C:13D9H         LINE#         1432
  C:13D9H         LINE#         1433
  -------         ENDPROC       TK_DATA_STORE
BL51 BANKED LINKER/LOCATER V6.22.2.0                                                  10/28/2024  10:56:11  PAGE 27


  -------         ENDMOD        LIB_TK_V20

  -------         MODULE        TK_API
  C:0000H         SYMBOL        _ICE_DUMMY_
  D:00C0H         PUBLIC        AN_IF
  C:181AH         PUBLIC        TK_SLEEP_mode
  D:0073H         PUBLIC        tk_key
  B:00E8H.4       PUBLIC        INT4_IE
  B:00C0H.1       PUBLIC        TK_IF
  B:0088H.4       PUBLIC        INT4_IF
  D:0084H         PUBLIC        WDT_C
  B:0080H.5       PUBLIC        P0_5
  B:00B0H.3       PUBLIC        P3_3
  D:00B8H         PUBLIC        SERC_IF
  B:0020H.0       PUBLIC        lp_mode_tg
  D:00B8H         PUBLIC        UART_IF
  B:0020H.1       PUBLIC        bKeyScanEnd
  D:0087H         PUBLIC        PCON
  C:17A1H         PUBLIC        LP_TKThreshold_Load
  C:1990H         PUBLIC        LP_TKInit
  D:00C8H         PUBLIC        CAPn_IF
  D:00B8H         PUBLIC        IICn_IF
  C:1BFAH         PUBLIC        TKInit
  C:1943H         PUBLIC        LP_wakeup_flt
  C:1B70H         PUBLIC        Load_TKThreshold
  D:0080H         PUBLIC        P0_DAT
  D:0090H         PUBLIC        P1_DAT
  D:00A0H         PUBLIC        P2_DAT
  D:00B0H         PUBLIC        P3_DAT
  D:0098H         PUBLIC        EINT0n_IF
  D:00D8H         PUBLIC        EINT1n_IF
  D:00E8H         PUBLIC        INTn_IE
  D:0088H         PUBLIC        INTn_IF
  D:00B8H         PUBLIC        SPIn_IF
  C:1141H         PUBLIC        key_scan
  D:00A8H         PUBLIC        TMRn_IF
  D:00C8H         PUBLIC        PWMn_IF
  D:00F8H         PUBLIC        INTn_IP
  D:00EFH         PUBLIC        VREF_C
  C:1AD1H         PUBLIC        _Delayus
  B:0020H.2       PUBLIC        lp_mode
  D:0085H         PUBLIC        WDT_OP
  D:00EAH         PUBLIC        TK_C0
  C:1C21H         PUBLIC        TK_interrupt
  D:00E9H         PUBLIC        TK_C1
  D:0099H         PUBLIC        ADC_TG_R0L
  D:00EBH         PUBLIC        TK_C2
  D:008BH         PUBLIC        P0_OE
  D:00D0H         PUBLIC        PSW
  C:18E6H         PUBLIC        Default_TKThreshold
  D:00A1H         PUBLIC        AN_IE
  -------         PROC          LP_TKTHRESHOLD_LOAD
  -------         DO            
  D:0002H         SYMBOL        u16_temp
  -------         ENDDO         
  C:17A1H         LINE#         55
  C:17A1H         LINE#         56
BL51 BANKED LINKER/LOCATER V6.22.2.0                                                  10/28/2024  10:56:11  PAGE 28


  C:17A1H         LINE#         59
  C:17B5H         LINE#         60
  C:17BFH         LINE#         61
  C:17C8H         LINE#         62
  C:17C8H         LINE#         63
  C:17CAH         LINE#         64
  C:17CAH         LINE#         66
  C:17DEH         LINE#         67
  C:17EAH         LINE#         68
  C:17F3H         LINE#         69
  C:17F3H         LINE#         70
  C:17F5H         LINE#         71
  C:17F5H         LINE#         73
  C:1800H         LINE#         74
  C:180EH         LINE#         75
  C:1817H         LINE#         76
  C:1817H         LINE#         77
  C:1819H         LINE#         78
  C:1819H         LINE#         79
  -------         ENDPROC       LP_TKTHRESHOLD_LOAD
  -------         PROC          KEY_SCAN
  -------         DO            
  D:0071H         SYMBOL        NotTuch_Time
  -------         ENDDO         
  C:1141H         LINE#         83
  C:1141H         LINE#         84
  C:1141H         LINE#         89
  C:1144H         LINE#         90
  C:1144H         LINE#         91
  C:1147H         LINE#         92
  C:114AH         LINE#         93
  C:114AH         LINE#         94
  C:114CH         LINE#         95
  C:114EH         LINE#         96
  C:114EH         LINE#         98
  C:1151H         LINE#         99
  C:1151H         LINE#         100
  C:1155H         LINE#         101
  C:1161H         LINE#         102
  C:1161H         LINE#         103
  C:1164H         LINE#         104
  C:1167H         LINE#         105
  C:1169H         LINE#         106
  C:116CH         LINE#         107
  C:1176H         LINE#         109
  C:117CH         LINE#         110
  C:117CH         LINE#         111
  C:117FH         LINE#         112
  C:1184H         LINE#         113
  C:1184H         LINE#         115
  C:1184H         LINE#         117
  C:118AH         LINE#         118
  C:118AH         LINE#         120
  C:118CH         LINE#         121
  C:118EH         LINE#         122
  C:1191H         LINE#         124
  C:1194H         LINE#         125
BL51 BANKED LINKER/LOCATER V6.22.2.0                                                  10/28/2024  10:56:11  PAGE 29


  C:1197H         LINE#         126
  C:119AH         LINE#         128
  C:119DH         LINE#         129
  C:11A0H         LINE#         130
  C:11A3H         LINE#         131
  C:11A3H         LINE#         132
  C:11A3H         LINE#         135
  C:11A3H         LINE#         136
  C:11A8H         LINE#         137
  C:11A8H         LINE#         138
  C:11ABH         LINE#         139
  C:11AEH         LINE#         140
  C:11B1H         LINE#         141
  C:11B4H         LINE#         142
  C:11B4H         LINE#         144
  C:11B7H         LINE#         145
  C:11B7H         LINE#         146
  C:11BAH         LINE#         147
  C:11C5H         LINE#         148
  C:11C5H         LINE#         149
  C:11C8H         LINE#         150
  C:11DEH         LINE#         151
  C:11E1H         LINE#         152
  C:11E3H         LINE#         154
  C:11E3H         LINE#         156
  C:11F2H         LINE#         157
  C:11F2H         LINE#         158
  C:11F4H         LINE#         159
  C:11F9H         LINE#         160
  C:11F9H         LINE#         162
  C:1204H         LINE#         163
  C:1204H         LINE#         164
  C:1206H         LINE#         165
  C:1208H         LINE#         168
  C:1208H         LINE#         169
  C:120BH         LINE#         170
  C:120BH         LINE#         171
  C:120BH         LINE#         174
  C:120EH         LINE#         175
  C:120EH         LINE#         176
  C:1210H         LINE#         177
  C:1212H         LINE#         178
  C:1214H         LINE#         179
  C:1219H         LINE#         181
  C:121CH         LINE#         182
  C:121EH         LINE#         183
  C:1220H         LINE#         184
  C:1223H         LINE#         185
  C:1223H         LINE#         187
  C:1223H         LINE#         188
  -------         ENDPROC       KEY_SCAN
  -------         PROC          TKINIT
  C:1BFAH         LINE#         191
  C:1BFAH         LINE#         192
  C:1BFAH         LINE#         193
  C:1BFDH         LINE#         194
  C:1C00H         LINE#         196
BL51 BANKED LINKER/LOCATER V6.22.2.0                                                  10/28/2024  10:56:11  PAGE 30


  C:1C03H         LINE#         197
  C:1C06H         LINE#         199
  C:1C08H         LINE#         200
  C:1C0AH         LINE#         202
  -------         ENDPROC       TKINIT
  -------         PROC          LP_TKINIT
  C:1990H         LINE#         208
  C:1990H         LINE#         209
  C:1990H         LINE#         210
  C:1993H         LINE#         211
  C:1997H         LINE#         223
  C:199AH         LINE#         228
  C:19A6H         LINE#         229
  C:19A6H         LINE#         230
  C:19A9H         LINE#         231
  C:19B0H         LINE#         232
  C:19B4H         LINE#         233
  C:19C0H         LINE#         234
  C:19C0H         LINE#         235
  C:19C3H         LINE#         236
  C:19C6H         LINE#         237
  C:19C9H         LINE#         238
  C:19CBH         LINE#         239
  C:19D0H         LINE#         240
  C:19D2H         LINE#         245
  C:19D5H         LINE#         247
  C:19D9H         LINE#         248
  -------         ENDPROC       LP_TKINIT
  -------         PROC          TK_SLEEP_MODE
  C:181AH         LINE#         251
  C:181AH         LINE#         252
  C:181AH         LINE#         253
  C:181DH         LINE#         257
  C:181FH         LINE#         258
  C:1821H         LINE#         259
  C:1823H         LINE#         263
  C:1826H         LINE#         264
  C:1828H         LINE#         266
  C:182BH         LINE#         268
  C:182DH         LINE#         274
  C:1836H         LINE#         278
  C:183CH         LINE#         279
  C:183CH         LINE#         280
  C:183EH         LINE#         281
  C:183EH         LINE#         284
  C:1841H         LINE#         288
  C:185AH         LINE#         289
  C:1870H         LINE#         290
  C:1877H         LINE#         295
  C:1879H         LINE#         296
  C:187CH         LINE#         298
  C:187FH         LINE#         299
  C:1882H         LINE#         300
  C:1885H         LINE#         301
  -------         ENDPROC       TK_SLEEP_MODE
  -------         PROC          LP_WAKEUP_FLT
  -------         DO            
BL51 BANKED LINKER/LOCATER V6.22.2.0                                                  10/28/2024  10:56:11  PAGE 31


  D:0065H         SYMBOL        lp_loop_cnt
  D:0066H         SYMBOL        lp_adder_flt
  -------         ENDDO         
  C:1943H         LINE#         304
  C:1943H         LINE#         305
  C:1943H         LINE#         307
  C:1946H         LINE#         309
  C:1953H         LINE#         310
  C:1953H         LINE#         311
  C:1957H         LINE#         312
  C:1963H         LINE#         313
  C:1963H         LINE#         314
  C:1966H         LINE#         315
  C:1969H         LINE#         316
  C:196BH         LINE#         317
  C:1975H         LINE#         318
  C:197BH         LINE#         319
  C:197BH         LINE#         320
  C:197DH         LINE#         321
  C:1988H         LINE#         322
  C:1988H         LINE#         323
  C:198AH         LINE#         324
  C:198BH         LINE#         325
  C:198BH         LINE#         326
  C:198BH         LINE#         328
  C:198BH         LINE#         329
  C:198BH         LINE#         330
  C:198BH         LINE#         331
  C:198FH         LINE#         332
  -------         ENDPROC       LP_WAKEUP_FLT
  -------         PROC          _DELAYUS
  D:0006H         SYMBOL        q
  -------         DO            
  D:0004H         SYMBOL        i
  D:0002H         SYMBOL        j
  -------         ENDDO         
  C:1AD1H         LINE#         335
  C:1AD1H         LINE#         336
  C:1AD1H         LINE#         338
  C:1ADBH         LINE#         339
  C:1ADEH         LINE#         340
  C:1ADEH         LINE#         341
  C:1AE1H         LINE#         342
  C:1AF3H         LINE#         343
  -------         ENDPROC       _DELAYUS
  -------         PROC          TK_INTERRUPT
  C:1C21H         LINE#         347
  C:1C21H         LINE#         349
  C:1C23H         LINE#         350
  C:1C26H         LINE#         351
  -------         ENDPROC       TK_INTERRUPT
  -------         PROC          LOAD_TKTHRESHOLD
  -------         DO            
  D:0007H         SYMBOL        i
  -------         ENDDO         
  C:1B70H         LINE#         354
  C:1B70H         LINE#         355
BL51 BANKED LINKER/LOCATER V6.22.2.0                                                  10/28/2024  10:56:11  PAGE 32


  C:1B70H         LINE#         357
  C:1B7CH         LINE#         358
  C:1B7CH         LINE#         359
  C:1B88H         LINE#         360
  C:1B8BH         LINE#         361
  -------         ENDPROC       LOAD_TKTHRESHOLD
  -------         PROC          DEFAULT_TKTHRESHOLD
  -------         DO            
  D:0065H         SYMBOL        i
  D:0007H         SYMBOL        value
  -------         ENDDO         
  C:18E6H         LINE#         363
  C:18E6H         LINE#         364
  C:18E6H         LINE#         366
  C:18E9H         LINE#         367
  C:18ECH         LINE#         368
  C:18EFH         LINE#         369
  C:18F2H         LINE#         370
  C:1900H         LINE#         371
  C:1900H         LINE#         372
  C:190EH         LINE#         374
  C:1912H         LINE#         375
  C:1919H         LINE#         376
  C:191EH         LINE#         377
  C:191EH         LINE#         382
  C:192CH         LINE#         383
  C:192DH         LINE#         385
  C:192DH         LINE#         387
  C:1930H         LINE#         388
  C:1939H         LINE#         389
  C:1942H         LINE#         390
  C:1942H         LINE#         391
  -------         ENDPROC       DEFAULT_TKTHRESHOLD
  -------         ENDMOD        TK_API

  -------         MODULE        LP_TK_KEY_OUT_V20
  C:0000H         SYMBOL        _ICE_DUMMY_
  D:00C0H         PUBLIC        AN_IF
  C:0DFCH         PUBLIC        _LP_tk_key
  D:00B8H         PUBLIC        SERC_IF
  D:00B8H         PUBLIC        UART_IF
  D:00C8H         PUBLIC        CAPn_IF
  D:0080H         PUBLIC        P0_DAT
  D:0090H         PUBLIC        P1_DAT
  D:00A0H         PUBLIC        P2_DAT
  D:00B0H         PUBLIC        P3_DAT
  D:0098H         PUBLIC        EINT0n_IF
  D:00D8H         PUBLIC        EINT1n_IF
  D:00E8H         PUBLIC        INTn_IE
  D:0088H         PUBLIC        INTn_IF
  D:00B8H         PUBLIC        SPIn_IF
  D:00A8H         PUBLIC        TMRn_IF
  D:00C8H         PUBLIC        PWMn_IF
  D:00F8H         PUBLIC        INTn_IP
  D:0085H         PUBLIC        WDT_OP
  D:00D0H         PUBLIC        PSW
  -------         PROC          _LP_TK_KEY
BL51 BANKED LINKER/LOCATER V6.22.2.0                                                  10/28/2024  10:56:11  PAGE 33


  D:0067H         SYMBOL        LP_keynum
  -------         DO            
  D:0068H         SYMBOL        i
  D:0069H         SYMBOL        LP_tmp_delta
  D:006AH         SYMBOL        lp_tk_key_sum
  -------         ENDDO         
  C:0DFCH         LINE#         20
  C:0DFEH         LINE#         21
  C:0DFEH         LINE#         25
  C:0E01H         LINE#         27
  C:0E04H         LINE#         28
  C:0E0FH         LINE#         29
  C:0E0FH         LINE#         30
  C:0E19H         LINE#         31
  C:0E19H         LINE#         32
  C:0E1FH         LINE#         33
  C:0E1FH         LINE#         34
  C:0E2AH         LINE#         35
  C:0E31H         LINE#         36
  C:0E31H         LINE#         37
  C:0E35H         LINE#         38
  C:0E35H         LINE#         39
  C:0E4DH         LINE#         40
  C:0E4DH         LINE#         41
  C:0E55H         LINE#         42
  C:0E55H         LINE#         43
  C:0E77H         LINE#         44
  C:0E8AH         LINE#         45
  C:0E8AH         LINE#         46
  C:0E8EH         LINE#         47
  C:0E91H         LINE#         48
  C:0E9AH         LINE#         49
  C:0E9AH         LINE#         50
  C:0E9CH         LINE#         51
  C:0E9CH         LINE#         52
  C:0E9FH         LINE#         54
  C:0E9FH         LINE#         55
  C:0EA2H         LINE#         56
  C:0EAEH         LINE#         57
  C:0EAEH         LINE#         59
  C:0ECCH         LINE#         60
  C:0ECCH         LINE#         61
  C:0ED1H         LINE#         62
  C:0ED6H         LINE#         63
  C:0ED6H         LINE#         64
  C:0ED9H         LINE#         65
  C:0ED9H         LINE#         67
  C:0EE4H         LINE#         68
  C:0EE4H         LINE#         69
  C:0EFAH         LINE#         70
  C:0EFFH         LINE#         71
  C:0EFFH         LINE#         72
  C:0EFFH         LINE#         76
  C:0F09H         LINE#         77
  C:0F09H         LINE#         78
  C:0F20H         LINE#         79
  C:0F27H         LINE#         80
BL51 BANKED LINKER/LOCATER V6.22.2.0                                                  10/28/2024  10:56:11  PAGE 34


  C:0F27H         LINE#         81
  C:0F3FH         LINE#         82
  C:0F3FH         LINE#         84
  C:0F5EH         LINE#         85
  C:0F5EH         LINE#         86
  C:0F77H         LINE#         87
  C:0F77H         LINE#         88
  C:0F84H         LINE#         89
  C:0F84H         LINE#         90
  C:0F84H         LINE#         91
  C:0F84H         LINE#         92
  C:0F87H         LINE#         94
  C:0F87H         LINE#         96
  C:0F9EH         LINE#         97
  C:0FC0H         LINE#         98
  C:0FC0H         LINE#         99
  C:0FC4H         LINE#         100
  C:0FC6H         LINE#         102
  C:0FC6H         LINE#         103
  C:0FCBH         LINE#         104
  C:0FCBH         LINE#         106
  C:0FE7H         LINE#         107
  C:0FE7H         LINE#         108
  C:1007H         LINE#         109
  C:1007H         LINE#         110
  C:1012H         LINE#         111
  C:1012H         LINE#         112
  C:1014H         LINE#         113
  C:102CH         LINE#         114
  C:102CH         LINE#         115
  C:102CH         LINE#         116
  C:1039H         LINE#         117
  C:104FH         LINE#         118
  C:104FH         LINE#         119
  C:104FH         LINE#         120
  C:1054H         LINE#         121
  C:1054H         LINE#         123
  C:1056H         LINE#         124
  -------         ENDPROC       _LP_TK_KEY
  -------         ENDMOD        LP_TK_KEY_OUT_V20

  -------         MODULE        TK_KEY_OUTPUT_V21
  C:0000H         SYMBOL        _ICE_DUMMY_
  C:005EH         PUBLIC        _TK_key_out
  D:0008H         PUBLIC        ScanTimes
  D:0009H         SYMBOL        diff_adder_all
  D:000BH         SYMBOL        s_cnt
  D:000CH         SYMBOL        mul_key_flt
  D:000DH         SYMBOL        tmp_key_cnt
  B:0020H.3       PUBLIC        bMulKey_Lock
  B:0020H.4       PUBLIC        bCorrectionSumDiff
  B:0020H.5       PUBLIC        bMulKey_Over
  D:000EH         PUBLIC        SumDiffThreshold
  D:0010H         SYMBOL        ch0_delta
  D:0012H         SYMBOL        int_tk_key_sum
  D:0016H         SYMBOL        keyON_time
  -------         PROC          _TK_KEY_OUT
BL51 BANKED LINKER/LOCATER V6.22.2.0                                                  10/28/2024  10:56:11  PAGE 35


  D:0066H         SYMBOL        AllNums
  D:0067H         SYMBOL        Debounce
  D:0068H         SYMBOL        flow_mode
  D:0069H         SYMBOL        Max_key_num
  D:006AH         SYMBOL        ContinueKey_cnt
  -------         DO            
  D:006CH         SYMBOL        i
  D:006DH         SYMBOL        k1
  D:006EH         SYMBOL        k2
  D:006FH         SYMBOL        tmp_delta
  -------         ENDDO         
  C:005EH         LINE#         102
  C:0064H         LINE#         103
  C:0064H         LINE#         109
  C:006EH         LINE#         110
  C:006EH         LINE#         111
  C:0077H         LINE#         112
  C:0083H         LINE#         113
  C:0083H         LINE#         114
  C:008AH         LINE#         115
  C:008AH         LINE#         116
  C:008CH         LINE#         117
  C:008EH         LINE#         119
  C:0090H         LINE#         120
  C:00A4H         LINE#         121
  C:00B8H         LINE#         122
  C:00CCH         LINE#         123
  C:00DAH         LINE#         125
  C:00E7H         LINE#         126
  C:00F5H         LINE#         128
  C:0102H         LINE#         129
  C:0116H         LINE#         130
  C:0116H         LINE#         131
  C:0132H         LINE#         132
  C:0132H         LINE#         133
  C:0153H         LINE#         134
  C:0170H         LINE#         135
  C:0172H         LINE#         137
  C:0172H         LINE#         138
  C:01BDH         LINE#         139
  C:01F0H         LINE#         140
  C:01F0H         LINE#         142
  C:0219H         LINE#         143
  C:021FH         LINE#         144
  C:021FH         LINE#         145
  C:0221H         LINE#         146
  C:0228H         LINE#         147
  C:0228H         LINE#         148
  C:022BH         LINE#         149
  C:022BH         LINE#         150
  C:022BH         LINE#         151
  C:0255H         LINE#         152
  C:025AH         LINE#         154
  C:025CH         LINE#         155
  C:025FH         LINE#         157
  C:025FH         LINE#         158
  C:0262H         LINE#         159
BL51 BANKED LINKER/LOCATER V6.22.2.0                                                  10/28/2024  10:56:11  PAGE 36


  C:0266H         LINE#         161
  C:0272H         LINE#         162
  C:0272H         LINE#         164
  C:028EH         LINE#         165
  C:028EH         LINE#         166
  C:02AFH         LINE#         167
  C:02CCH         LINE#         168
  C:02CFH         LINE#         170
  C:02CFH         LINE#         171
  C:02D4H         LINE#         172
  C:02D4H         LINE#         173
  C:02DFH         LINE#         174
  C:02E2H         LINE#         176
  C:02E2H         LINE#         177
  C:030BH         LINE#         178
  C:0311H         LINE#         179
  C:0311H         LINE#         180
  C:0313H         LINE#         181
  C:031AH         LINE#         182
  C:031AH         LINE#         183
  C:031DH         LINE#         184
  C:031DH         LINE#         185
  C:031DH         LINE#         186
  C:0320H         LINE#         187
  C:0320H         LINE#         188
  C:0332H         LINE#         189
  C:0332H         LINE#         190
  C:0372H         LINE#         191
  C:0372H         LINE#         192
  C:0376H         LINE#         193
  C:03B0H         LINE#         194
  C:03CFH         LINE#         195
  C:03CFH         LINE#         196
  C:03D4H         LINE#         197
  C:03DFH         LINE#         199
  C:0435H         LINE#         200
  C:0468H         LINE#         201
  C:0468H         LINE#         202
  C:0468H         LINE#         204
  C:046BH         LINE#         206
  C:049EH         LINE#         207
  C:049EH         LINE#         208
  C:04A6H         LINE#         211
  C:04D6H         LINE#         212
  C:04D6H         LINE#         213
  C:04F4H         LINE#         214
  C:0502H         LINE#         215
  C:0502H         LINE#         216
  C:0510H         LINE#         217
  C:0531H         LINE#         218
  C:0531H         LINE#         219
  C:055BH         LINE#         220
  C:055BH         LINE#         221
  C:055BH         LINE#         222
  C:055DH         LINE#         224
  C:055DH         LINE#         225
  C:056AH         LINE#         226
BL51 BANKED LINKER/LOCATER V6.22.2.0                                                  10/28/2024  10:56:11  PAGE 37


  C:056AH         LINE#         227
  C:056AH         LINE#         230
  C:059BH         LINE#         231
  C:05A6H         LINE#         232
  C:05A6H         LINE#         233
  C:05ACH         LINE#         234
  C:05ACH         LINE#         236
  C:05B4H         LINE#         237
  C:05B4H         LINE#         238
  C:05B9H         LINE#         239
  C:05BBH         LINE#         240
  C:05C5H         LINE#         241
  C:05C5H         LINE#         242
  C:05D2H         LINE#         243
  C:05D2H         LINE#         245
  C:05DDH         LINE#         247
  C:05E8H         LINE#         248
  C:05F3H         LINE#         249
  C:05F3H         LINE#         250
  C:05F9H         LINE#         251
  C:060AH         LINE#         252
  C:060AH         LINE#         254
  C:0614H         LINE#         255
  C:0614H         LINE#         256
  C:0622H         LINE#         257
  C:0630H         LINE#         258
  C:0630H         LINE#         259
  C:063EH         LINE#         260
  C:0662H         LINE#         261
  C:0662H         LINE#         262
  C:0670H         LINE#         263
  C:0672H         LINE#         265
  C:069CH         LINE#         266
  C:06A5H         LINE#         267
  C:06A5H         LINE#         268
  C:06A7H         LINE#         270
  C:06A7H         LINE#         271
  C:06B9H         LINE#         272
  C:06BBH         LINE#         273
  C:06BBH         LINE#         274
  C:06BDH         LINE#         276
  C:06BDH         LINE#         277
  C:06CBH         LINE#         278
  C:06CBH         LINE#         279
  C:06D9H         LINE#         280
  C:06DBH         LINE#         282
  C:06DBH         LINE#         283
  C:06E9H         LINE#         284
  C:06FAH         LINE#         285
  C:06FAH         LINE#         286
  C:0707H         LINE#         287
  C:0707H         LINE#         288
  C:0707H         LINE#         289
  C:0707H         LINE#         291
  C:0737H         LINE#         292
  C:0737H         LINE#         293
  C:074CH         LINE#         294
BL51 BANKED LINKER/LOCATER V6.22.2.0                                                  10/28/2024  10:56:11  PAGE 38


  C:074CH         LINE#         295
  C:074EH         LINE#         297
  C:074EH         LINE#         298
  C:075BH         LINE#         299
  C:075BH         LINE#         302
  C:076CH         LINE#         303
  C:076CH         LINE#         304
  C:079EH         LINE#         305
  C:079EH         LINE#         306
  C:07B5H         LINE#         307
  C:07C9H         LINE#         308
  C:07C9H         LINE#         309
  C:07FCH         LINE#         310
  C:07FCH         LINE#         311
  C:0804H         LINE#         312
  C:0804H         LINE#         313
  C:0844H         LINE#         314
  C:0847H         LINE#         316
  C:0847H         LINE#         317
  C:085CH         LINE#         318
  C:085CH         LINE#         319
  C:085CH         LINE#         320
  C:085CH         LINE#         321
  C:085CH         LINE#         322
  C:085EH         LINE#         324
  C:085EH         LINE#         325
  C:086CH         LINE#         326
  C:087DH         LINE#         327
  C:087DH         LINE#         328
  C:08C7H         LINE#         329
  C:08D5H         LINE#         330
  C:08D5H         LINE#         331
  C:08D5H         LINE#         332
  C:08D5H         LINE#         333
  C:08DAH         LINE#         337
  C:08ECH         LINE#         338
  C:08ECH         LINE#         339
  C:08EEH         LINE#         340
  C:0903H         LINE#         341
  C:0903H         LINE#         342
  C:0905H         LINE#         343
  C:0905H         LINE#         344
  C:0907H         LINE#         345
  C:0909H         LINE#         347
  C:0909H         LINE#         348
  C:0910H         LINE#         349
  C:0910H         LINE#         350
  C:0912H         LINE#         351
  C:0912H         LINE#         352
  C:0914H         LINE#         353
  C:0914H         LINE#         355
  C:0918H         LINE#         356
  C:0918H         LINE#         357
  C:091AH         LINE#         358
  C:091EH         LINE#         359
  C:0920H         LINE#         361
  C:0920H         LINE#         362
BL51 BANKED LINKER/LOCATER V6.22.2.0                                                  10/28/2024  10:56:11  PAGE 39


  C:0931H         LINE#         363
  C:0931H         LINE#         364
  C:0934H         LINE#         365
  C:0934H         LINE#         366
  C:0934H         LINE#         370
  C:093DH         LINE#         371
  C:0949H         LINE#         372
  C:0949H         LINE#         373
  C:094CH         LINE#         374
  C:095DH         LINE#         375
  C:095DH         LINE#         376
  C:0966H         LINE#         377
  C:0966H         LINE#         378
  C:0996H         LINE#         379
  C:0996H         LINE#         380
  C:099EH         LINE#         381
  C:09AFH         LINE#         382
  C:09AFH         LINE#         383
  C:09BDH         LINE#         384
  C:09CEH         LINE#         385
  C:09CEH         LINE#         386
  C:09CEH         LINE#         387
  C:09CEH         LINE#         388
  C:09D0H         LINE#         390
  C:09D0H         LINE#         391
  C:09E1H         LINE#         392
  C:09E1H         LINE#         393
  C:09EFH         LINE#         394
  C:09EFH         LINE#         395
  C:09EFH         LINE#         396
  C:09F1H         LINE#         398
  C:09F1H         LINE#         399
  C:0A08H         LINE#         400
  C:0A15H         LINE#         401
  C:0A15H         LINE#         402
  C:0A17H         LINE#         404
  C:0A17H         LINE#         405
  C:0A1CH         LINE#         406
  C:0A1CH         LINE#         407
  C:0A1CH         LINE#         487
  C:0A7DH         LINE#         488
  C:0A7DH         LINE#         489
  C:0A7DH         LINE#         490
  C:0A81H         LINE#         491
  C:0A83H         LINE#         492
  C:0A83H         LINE#         493
  C:0A87H         LINE#         494
  C:0A89H         LINE#         495
  C:0A89H         LINE#         496
  C:0A8DH         LINE#         497
  C:0A8FH         LINE#         498
  C:0A8FH         LINE#         499
  C:0A93H         LINE#         500
  C:0A95H         LINE#         501
  C:0A95H         LINE#         502
  C:0A99H         LINE#         503
  C:0A9BH         LINE#         504
BL51 BANKED LINKER/LOCATER V6.22.2.0                                                  10/28/2024  10:56:11  PAGE 40


  C:0A9BH         LINE#         505
  C:0A9FH         LINE#         506
  C:0AA1H         LINE#         507
  C:0AA1H         LINE#         508
  C:0AA5H         LINE#         509
  C:0AA7H         LINE#         510
  C:0AA7H         LINE#         511
  C:0AAFH         LINE#         512
  C:0AB1H         LINE#         513
  C:0AB1H         LINE#         514
  C:0AB9H         LINE#         515
  C:0ABBH         LINE#         516
  C:0ABBH         LINE#         517
  C:0AC3H         LINE#         518
  C:0AC5H         LINE#         519
  C:0AC5H         LINE#         520
  C:0ACDH         LINE#         521
  C:0ACFH         LINE#         522
  C:0ACFH         LINE#         523
  C:0AD7H         LINE#         524
  C:0AD9H         LINE#         525
  C:0AD9H         LINE#         526
  C:0AE1H         LINE#         527
  C:0AE3H         LINE#         528
  C:0AE3H         LINE#         529
  C:0AEBH         LINE#         530
  C:0AEDH         LINE#         531
  C:0AEDH         LINE#         532
  C:0AF5H         LINE#         533
  C:0AF7H         LINE#         534
  C:0AF7H         LINE#         535
  C:0B03H         LINE#         536
  C:0B05H         LINE#         537
  C:0B05H         LINE#         538
  C:0B11H         LINE#         539
  C:0B13H         LINE#         540
  C:0B13H         LINE#         541
  C:0B1FH         LINE#         542
  C:0B21H         LINE#         543
  C:0B21H         LINE#         544
  C:0B2DH         LINE#         545
  C:0B2FH         LINE#         546
  C:0B2FH         LINE#         547
  C:0B3BH         LINE#         548
  C:0B3DH         LINE#         549
  C:0B3DH         LINE#         550
  C:0B49H         LINE#         551
  C:0B4BH         LINE#         552
  C:0B4BH         LINE#         553
  C:0B57H         LINE#         554
  C:0B59H         LINE#         555
  C:0B59H         LINE#         556
  C:0B65H         LINE#         557
  C:0B67H         LINE#         558
  C:0B67H         LINE#         559
  C:0B79H         LINE#         560
  C:0B79H         LINE#         561
BL51 BANKED LINKER/LOCATER V6.22.2.0                                                  10/28/2024  10:56:11  PAGE 41


  C:0B79H         LINE#         562
  C:0B79H         LINE#         563
  C:0B79H         LINE#         565
  C:0B7EH         LINE#         567
  C:0B7EH         LINE#         568
  C:0B86H         LINE#         569
  -------         ENDPROC       _TK_KEY_OUT
  -------         ENDMOD        TK_KEY_OUTPUT_V21

  -------         MODULE        ?C?IMUL
  C:161DH         PUBLIC        ?C?IMUL
  -------         ENDMOD        ?C?IMUL

  -------         MODULE        ?C?UIDIV
  C:162FH         PUBLIC        ?C?UIDIV
  -------         ENDMOD        ?C?UIDIV

  -------         MODULE        ?C?IILDX
  C:1684H         PUBLIC        ?C?IILDX
  -------         ENDMOD        ?C?IILDX

  -------         MODULE        ?C?OFFXADD
  C:169AH         PUBLIC        ?C?OFFXADD
  -------         ENDMOD        ?C?OFFXADD

Program Size: data=167.2 xdata=253 code=7196
LINK/LOCATE RUN COMPLETE.  0 WARNING(S),  0 ERROR(S)
