:0300000002105794
:1010570075841078FFE4F6D8FD9000007F007E03CA
:10106700E4F0A3DFFCDEFA7581A790909074A5F0F9
:1010770074A0909095F0A37400F0909090F09090E9
:101087008074A5F0908020740093909082F0743063
:10109700909083F09090F0E04480F0758AA0908063
:1010A70027740093F58A908026740093F589758AD2
:0A10B7005090908074A5F00210FC28
:101A1E00121A88121B351200061218E6121BD5D2A6
:101A2E00EFC3E523940174809480500375855A1298
:101A3E001BFA121141300108C2011213DA1219DA1F
:101A4E00300709E5246005C20712004E121B1680EE
:011A5E00E1A6
:101B3500758BFF758CFF758DFF758EFF90911BE082
:0E1B4500440FF075B00FE4F5A0F590F5802286
:101A880090902074A5F0A37401F0909020745AF0FF
:101A980074A5F09090277418F0909020745AF075FF
:051AA800EFEBF58522C3
:101A5F00C2EF75B00F90913CE054F0F0E0540FF0EE
:101A6F00E4F5989091857403F0909182F0909180B5
:091A7F00F0C288D2E8E4F5AE22C1
:101B530090913CE054F0F0E04407F0E0540FF0E0E3
:0D1B63004460F0C288C2E8121BD5D2EF2208
:061C1B00752419D2B42269
:09004E001524E5247002C2B4225D
:1019DA00E53E65747004E53D6573603585733D8544
:1019EA00743EE53D30E210C2B2AF18EF6402601BEC
:1019FA00EF640370198014D2B2AF18EF6401600566
:101A0A00EF64037009E53E453D6003121C1BC2B337
:041A1A0022D2B322FF
:1013DA00E4FDEDC3940B74809480502275F002ED05
:1013EA00A42400F582E5F03400F583E0FEA3E0FFD3
:1013FA00ED25E02427F8A60608A6070D80D4E57493
:10140A00457370030214AD857365857466E4FDED5A
:10141A00C3940B7480948040030214AAE4F567F520
:10142A006875F002EDA42437F582E5F03400F583FF
:10143A00E0FEA3E0FF75F002EDA42400F582E5F0DA
:10144A003400F583E0FAA3E0FBD39FEA9E402E75B1
:10145A00F002EDA42437F582E5F03400F583E0FECE
:10146A00A3E0FFC3EB9FF568EA9EF567C3E56894BE
:10147A0080E5679400400675670075687FE5663009
:10148A00E00FAF68744E2DF8E6FEEFD39E4002A639
:10149A0007E565C313F565E56613F5660D021419CC
:0314AA00E4F54A1C
:0114AD00221C
:03000300021BA736
:101BA700C0E0C083C082C2E8C288909180E4F0F5AB
:0A1BB70098D209D082D083D0E0322A
:101BD50075B3F9E4F5B475AECF439D04D2EAF522A9
:031BE500F52322C3
:03003B00021AADF9
:101AAD00C0E0C0D030AA16C2AAD2070522C3E522D3
:101ABD0094FA748094804005752200D206C28AD0B3
:041ACD00D0D0E03263
:03005B0002003E62
:03003E00C28E323D
:0C1BC100011910011A02011C01011BC2D5
:1000060090913CE054F0F0E04407F0E0540FF0E04B
:100016004460F090911BE04403F075DD4275DA2FE1
:0D00260075DB10C2BC439F10D2EBD2FB2251
:03004300020B8726
:100B8700C0E0C0D075D000C000C004C005C006C01A
:010B97000756
:100B980030B802C2B830B902C2B920BC03020DEBAA
:100BA800D209E5DC20E603020CD5E5DC30E308E5F4
:100BB800DC20E403020DE6AF1BC3EF94C5748094F8
:100BC800804027D3EF94C774809480501D74862F7B
:100BD800F8E6F5DE051BC3E51B94C87480948050C5
:100BE80003020DE6751BC5020DE6AF1B7E00EF6420
:100BF800C470068518DE020DE6C3EF94C2EE648069
:100C080094804019EF64C24E70098574DE751BC369
:100C1800020DE6E573F5DE751BC2020DE6AF1B7E1D
:100C280000C3EF94B774809480401E7497251BF816
:100C3800E6F5DE051BC3E51B94C27480948050035F
:100C4800020DE6751BB7020DE6C3EF94ACEE6480A7
:100C58009480401E7493251BF8E6F5DE051BC3E55A
:100C68001B94B7748094805003020DE6751BAC0288
:100C78000DE6AF1B7E00C3EF949674809480401EEF
:100C8800AD1D051DA805E6F5DE051BE51B94AC7436
:100C98008094804035751B96751D27020DE6C3EFBD
:100CA8009480EE64809480401EAF1D051DA807E661
:100CB800F5DE051BE51B949674809480400C751B2B
:100CC80080751D75020DE675DEFF020DE6AFDEE5E7
:100CD800DC30E405C208020DE6300803020D7FEFA0
:100CE800FDD394C874809480500CC3ED94807480B4
:100CF800948040028F1BE51BFD7C00C394C5748063
:100D080094804006E51B24868063ED64C44C70051E
:100D18008518DE805EE51BFD7C00C394C274809458
:100D28008040058574DE804BC3ED94B7EC648094F5
:100D3800804006E51B24978034E51BFD7C00C394A6
:100D4800AC748094804006E51B24938020C3ED9406
:100D580096EC648094804006E51B2491800FE51B87
:100D6800C3948074809480400AE51B24F5F51DF82F
:100D7800E6F5DED2088067E51BFD7C0064C47004DC
:100D88008F18805AC3ED94C5EC648094804023ED9D
:100D980094C8EC6480948050197486251BF8A607C3
:100DA800051BE51BC394C8748094804031751BC52E
:100DB800802CE51BFDC394AC748094804020ED9496
:100DC800B77480948050177493251BF8A607051BE9
:100DD800C3E51B94B7748094804003751BAC43DB58
:050DE80002C2BCC28D37
:0F0DED00D007D006D005D004D000D0D0D0E0324F
:031BCD00016000B4
:101BE800E4FF90900074ACF0E0640170020F22E40E
:011BF800FFED
:011BF90022C9
:0F1C0B00E4FF9090007453F0E070020F22E4FFAA
:011C1A0022A7
:04188600AB07AA06FC
:10188A00E4F566F5678B828A8393FC909001745A1B
:10189A00F0EC6D604475855A0567E5677002056668
:1018AA00D394F0E56694FF40037F0022909002EB08
:1018BA00F0A3EAF0A3EDF0909003E0640260037FE6
:1018CA0000229090057401F0A37434F0909005E41E
:0B18DA00F08B828A8393FC80B87F01B2
:0118E50022E0
:040033008F828E83A7
:03003700E493FF50
:01003A0022A3
:101AF400AB07AA06121BE8EF7002FF22AF03AE0287
:101B0400121886EF6006121C0B7F0122121C0B7F39
:021B14000022AD
:041B8C00AD07AC06EF
:101B9000121BE8EF7002FF22AF05AE04120033AE55
:061BA00007121C0BAF064A
:011BA600221C
:101B16007F0C7E82121B8CEF5402FFE5185402FDE7
:0F1B26006F600BC2EF7F0C7E82121AF4D2EF2297
:10156700C2C178A7E6FFC394047480948040030245
:10157700161CE5EA5401600302161C438B20C28542
:10158700EF14601B14602914603A24037046538BD0
:10159700F8E4F5EC75ED07F5EE78A376058035539D
:1015A7008C1F75ECE0E4F5EDF5EE78A47608802461
:1015B700538DFD538E3FE4F5ECF5ED75EE3478A5CC
:1015C70076098010538DEBE4F5EC75ED8075EE022E
:1015D70078A6760975855AC2C1E5EA5401703620A6
:1015E700C133538BDF43EA0143A1027587507587E7
:1015F700027587A0FFFE20C1170FBF00010E75857A
:101607005AD3EF9400EE94FF40EC53EA7F43EA800D
:05161700438B20C28599
:01161C0022AB
:1017260030C177438B20C285E5EA540C705DAFF279
:1017360078A7E6FD25E02475F8760008A607ED25CE
:10174600E02475F8F909E7F6087600AFF1ED25E033
:101756002476F8EF26F618E436F6ED14600F1460DA
:101766001114601624037017438B078019438CE00D
:101776008014438D02438EC0800C438D148007E491
:10178600F5EEF5EDF5EC78A706800653EA7F43EA19
:0B17960080C2C1E4F5EEF5ECF5ED2299
:1016A600E4FFEFC3940B748094805073EFB40B0087
:1016B600506A9016BFF82828730216E80216E80248
:1016C60016E00216F40216F20216EA0217140217C0
:1016D6001C0216FC0217040216E8748B2FF8761209
:1016E600803A8022748B2FF8762080308000748BAD
:1016F6002FF876188026748B2FF87616801E748B3A
:101706002FF876148016748B2FF87610800E748B53
:0F1716002FF876258006748B2FF8761C0F8083B2
:0117250022A1
:1014AE00438B20C28575EFEB75EAC075E9A3E4F5B1
:1014BE00EB538BDFF51EF5081216A6E4F565C3E5B2
:1014CE0065940774809480505E75855AE4F51EC34A
:1014DE00E51E940B748094805025121224E4FFFEB6
:1014EE0020C1170FBF00010E75855AD3EF94F0EE91
:1014FE0094FF40EC53EA7F43EA8012130280D075CA
:10150E006902756A11756B947B817D057F0B1200E4
:10151E005E756902756A11756B947B817D057F0B13
:10152E0012005E05658097E4F51EFFFEFDEDC39487
:10153E000B74809480500D748B2DF8E62FFFE43ED3
:10154E00FE0D80E97C007D0B12162F7C007D0612AD
:08155E00161D8E0E8F0FC20452
:011566002262
:10122400C2C1C3E51E940B74809480400302130171
:10123400E5EA54016003021301438B20C285E51ED5
:10124400B40B0040030212E6901253F828287302EC
:10125400128402127C0212740212A6021299021261
:10126400910212D10212D90212B30212BB0212C4A9
:10127400538BFE75ED01800E538BFD75ED02804698
:10128400538BFB75ED04E4F5ECF5EE805C538CDFD9
:1012940075EC208006538CBF75EC40E4F5EEF5ED5B
:1012A4008047538C7F75EC80E4F5EDF5EE803A537E
:1012B4008DFD75EE048024538DFB75EE02E48025CC
:1012C400538DEF75ED80E4F5EEF5EC801C538EBF85
:1012D40075EE208006538E7F75EE10E4F5EDF5EC87
:1012E4008007E4F5EEF5ECF5ED75855AC2C1E5EA43
:0E12F4005401700920C106538BDF43EA01222A
:1013020020C1030213CE438B20C285E5EA540C7040
:101312001CAFF2EF7F00FEADF1EF2DFFE43EFEE5E4
:101322001E25E02475F8A60608A6078011E4F5EA52
:1013320075EAC0E51E25E02475F8E4F608F6E51E18
:10134200B40B00507590134EF828287302137D02D7
:10135200137602136F02139202138B021384021389
:10136200AE0213B50213990213A00213A7438B0115
:10137200C280804D438B02C2818046438B04C2826D
:10138200803F438C20C2958038438C40C296803186
:10139200438C80C297802A438D02C2A18023438D51
:1013A20004C2A2801C438D10C2A48015438E40C289
:1013B200B6800E438E80C2B78007E4F5EEF5EDF5F8
:1013C200EC051EC2C1E4F5ECF5EEF5EDE5EA30E21E
:0713D20006E4F5EA75EAC02C
:0113D90022F1
:041BD000027100009E
:1017A100788CE6FF18E62FFFE433FE788DE67C00A7
:1017B1002FFFEC3E7D09FE12162F78A3EFF6C3949E
:1017C100047480948050027604788FE6FF18E62F27
:1017D100FFE433FE7890E67C002FFBEC3E7D09AF01
:1017E10003FE12162F78A4EFF6C39404748094803C
:1017F100500276047892E6FF18E62FFBE433FAFEF6
:10180100EB7802CEC313CE13D8F978A5F6C39404AE
:081811007480948050027604FB
:0118190022AC
:1011410030025F12181A300904C202C20930023398
:10115100E478A7F678A7E6C39404748094805008D5
:1011610012156712172680EC1217A17F04120DFCCD
:101171007573008F74E57445736008121943E4F5C3
:1011810073F574300203021223C2ECC28C53A1FD29
:1011910075EAC075E9A3E4F5EB121B53E4F51E02F1
:1011A1001224E5EA30E20C53EA7F43EA80E4F51EBB
:1011B10012122430C154121302C3E51E940B748021
:1011C1009480401E121B70756902756A11756B94CB
:1011D1007B817D087F0B12005E8E738F74E4F51E98
:1011E100D201E51864056009E5744573700330099F
:1011F10007C209E4F571F572C3E5729458E571947B
:10120100024004D2008003121224300015D2B3C26E
:1012110000C201E4F571F572121A5FD2ECD202122A
:02122100199022
:0112230022A8
:101BFA0053A1FD1214AEE4F51E121224C200C20251
:011C0A0022B7
:1019900053A1FDE4789EF675841F789EE6C3940CEF
:1019A00074809480502C12181A7F147E00121AD161
:1019B000E478A7F678A7E6C3940474809480500B6B
:1019C00075855A12156712172680E97F04120DFCDF
:0A19D00080C875841DE478A7F62294
:10181A00E4F5EFF5EAF5E9F5EB438B20C28575852A
:10182A005AF5987587507587017587A0E59854030E
:10183A006002C20275EF8090902074A5F0A3E0F5D3
:10184A00995399F0439905E599F0909020745AF0CC
:10185A0074A5F0A3E0F5995399F0439901E599F03D
:10186A00909020745AF07F017E00121AD1C28575B9
:0C187A00EFEB75EAC075E943E4F5EB22E2
:10194300E4F566F565C3E565940D74809480503CB9
:10195300E478A7F678A7E6C39404748094805008CB
:1019630012156712172680EC7F04120DFC757300A5
:101973008F74E574457360140566D3E56694067445
:0C1983008094804003C20222056580B9F8
:01198F002235
:101AD100E4FDFCC3ED9FEC9E5018E4FBFA75855ABA
:101AE1000BBB00010AEB640A4A70F20DBD00010C48
:021AF10080E192
:011AF30022D0
:03004B00021C2173
:061C2100C28C53A1FD324C
:101B7000E4FFEFC3940B74809480500F743F2FF8F0
:0B1B8000E6FE748B2FF8A6060F80E72E
:011B8B002237
:1018E60085194B851A4C851C4D1216A6E4F565C361
:1018F600E565940B748094805012748B2565F8E628
:10190600FF743F2565F8A607056580E37F007E82A4
:10191600121B8CEF6466700FE5652401FFE43482C8
:10192600FE121B8C8F18227518027D027F0C7E8298
:0C193600121AF47D667F007E82121AF403
:011942002282
:020DFC008F67FF
:100DFE0075855AE4F56A789EE6C394104003020E98
:100E0E009FE4F568E568C395675075789EE6FF70B8
:100E1E0012E56825E02496F8E4F608F6749F256836
:100E2E00F8E4F6EFB40118E56825E02475F8E6FE5F
:100E3E0008E6FFE56825E02496F8A60608A60778DA
:100E4E009EE6C394024035E56825E02497F9E568EF
:100E5E0025E02476F8E627FF18E61937FEE5682523
:100E6E00E02496F8A60608A607E56825E02496F87D
:100E7E00F9E7C313FE09E713A60608F60568808492
:100E8E00789E06E6C3940350030210547620021097
:100E9E0054E4F56AF568E568C3956740030210549B
:100EAE00E56825E02496F8E6FE08E6FFE56825E00D
:100EBE002475F8E6FC08E6FDC39FEC9E5033C3EFA5
:100ECE009DF569D394C840037569C874A32568F865
:100EDE00E569D396401B75F002E568A424DCF58223
:100EEE00E5F03400F583E4F0A37464F0E56804F5EE
:100EFE006AE569D394005003020F8775F002E56826
:100F0E00A424DCF582E5F03400F58374FFF5F012CD
:100F1E001684E569D39403401875F002E568A4249D
:100F2E00DCF582E5F03400F58374FF75F0FA1216E5
:100F3E008475F002E568A424DCF582E5F03400F552
:100F4E0083E0FEA3E0C39450EE9400400302104FE2
:100F5E00E56825E02476F9E56825E02496F8E6FEB6
:100F6E0008E6D397EE1997400DE56825E02497F82B
:100F7E00E6161870011602103975F002E568A42401
:100F8E00DCF582E5F03400F583E475F00612168484
:100F9E00E56825E02497F9E56825E02476F8C3E6B0
:100FAE0097FF18E61997FED3EF9405EE9400749F01
:100FBE0040062568F80680052568F8E4F675F00207
:100FCE00E568A424DCF582E5F03400F583E0FEA3A9
:100FDE00E0D39478EE94004068E56825E02497F914
:100FEE00E56825E02476F8C3E697FF18E61997FE24
:100FFE00D3EF9405EE94004025749F2568F8E6C360
:10100E009402401AE4F6E56825E02475F8E6FE0839
:10101E00E6FFE56825E02496F8A60608A607E5682B
:10102E0025E02497F806E61870010675F002E568CB
:10103E00A424DCF582E5F03400F583E4F0A37464B7
:08104E00F00568020EA4AF6A70
:011056002277
:06005E008F668D678B68C0
:10006400E508C39414400302025FE4F515F514F5A2
:1000740013F512F56CE56CC39566400302025AE56C
:10008400086003020116C203F50CF50B75F002E5D6
:100094006CA42437F582E5F03400F583E4F0A3F092
:1000A40075F002E56CA42400F582E5F03400F583D4
:1000B400E4F0A3F075F002E56CA42458F582E5F0B1
:1000C4003400F583E4F0A3F074DC256CF582E434A9
:1000D40000F583747FF0744D256CF582E43400F5EB
:1000E40083E4F074F2256CF582E43400F5837464DF
:1000F400F07416256CF582E43400F583E4F075F0B1
:1001040002E56CA42421F582E5F03400F583E4F0E3
:10011400A3F075F002E56CA42458F582E5F03400F0
:10012400F583E0FEA3E0C39432EE94005040E56C06
:1001340025E02475F8E6FE08E6FF75F002E56CA4F8
:100144002458F582E5F03400F583EEF0A3EFF07562
:10015400F002E56CA42458F582E5F03400F583E060
:10016400FEA3E07802CEC313CE13D8F9806875F0ED
:1001740002E56CA42458F582E5F03400F583E0FC34
:10018400A3E0FDAE047802CEC313CE13D8F9FFC3A7
:10019400ED9FFFEC9EFEE56C25E02476F8EF26FF4C
:1001A400EE1836FE75F002E56CA42458F582E5F0ED
:1001B4003400F583EEF0A3EFF075F002E56CA424AF
:1001C40058F582E5F03400F583E0FEA3E07802CE32
:1001D400C313CE13D8F9FF75F002E56CA42437F5E8
:1001E40082E5F03400F583EEF0A3EFF0E56C25E052
:1001F4002475F8E6FE08E6FF75F00AE56CA4246EA3
:10020400F582E5F03400F58375F002E50B12169AD9
:10021400EEF0A3EFF0E56614B56C0C050BE50BD31B
:1002240094044003E4F50B75F002E56CA42437F55F
:1002340082E5F03400F583E0FEA3E0FF75F002E50B
:100244006CA42400F582E5F03400F583EEF0A3EF0E
:10025400F0056C0200790508020B7EE4F50DF50942
:10026400F50AF56CE56CC3956640030208DA75F08F
:1002740002E56CA42458F582E5F03400F583E0FE31
:10028400A3E0C39432EE94005041E56C25E024755C
:10029400F8E6FE08E6FF75F002E56CA42458F58242
:1002A400E5F03400F583EEF0A3EFF075F002E56CB1
:1002B400A42458F582E5F03400F583E0FEA3E07849
:1002C40002CEC313CE13D8F9020452E56830E60E09
:1002D400E56C25E02475F8E6FE08E6020452E56CB8
:1002E40025E02475F8E6FE08E6FF75F00AE56CA43F
:1002F400246EF582E5F03400F58375F002E50B1207
:10030400169AEEF0A3EFF0E56614B56C0C050BE558
:100314000BD394044003E4F50BE4F56DE4F56EC3EC
:100324007404956DFFE56EC39F40030203D475F01A
:100334000AE56CA42470F582E5F03400F58375F0C9
:1003440002E56E12169AE0FEA3E0FF75F00AE56C72
:10035400A4246EF582E5F03400F58375F002E56EB1
:1003640012169AE0FCA3E0FDD39FEC9E405D8C6FD7
:100374008D7075F00AE56CA42470F582E5F0340004
:10038400F58375F002E56E12169AE0FEA3E0FF75A0
:10039400F00AE56CA4246EF582E5F03400F583756B
:1003A400F002E56E12169AEEF0A3EFF075F00AE58E
:1003B4006CA42470F582E5F03400F58375F002E551
:1003C4006E12169AE56FF0A3E570F0056E02032332
:1003D400056DE56D6405600302032075F002E56CAC
:1003E400A42458F582E5F03400F583E0FCA3E0FD95
:1003F400AE047802CEC313CE13D8F9FFC3ED9FFF2A
:10040400EC9EFE75F00AE56CA42472F582E5F034E6
:1004140000F583E0FCA3E02FFFEC3EFE75F002E55F
:100424006CA42458F582E5F03400F583EEF0A3EFD4
:10043400F075F002E56CA42458F582E5F03400F57B
:1004440083E0FEA3E07802CEC313CE13D8F9FF7580
:10045400F002E56CA42437F582E5F03400F583EE70
:10046400F0A3EFF0E4F56D75F002E56CA42400F55B
:1004740082E5F03400F583E0FEA3E0FF75F002E5C9
:100484006CA42437F582E5F03400F583E0FCA3E0A6
:10049400FDC39FEC9E400302074E748B256CF8E667
:1004A400F56E744D256CF582E43400F583E0700339
:1004B40002056A75F002E56CA42421F582E5F034A6
:1004C40000F583E0FEA3E0FFC3ED9FEC9E40030232
:1004D400056A75F002E56CA42437F582E5F0340072
:1004E400F583E0FCA3E0FDC3EF9DF570EE9CF56F92
:1004F400200566C3E570956EE56F9400405B741645
:10050400256CF582E43400F583E004F07416256C60
:10051400F582E43400F583E0FFE5672404FDE43369
:10052400FCD3EF9DEC6480F8748098403975F00238
:10053400E56CA42421F582E5F03400F583E0FEA304
:10054400E0FF75F002E56CA42400F582E5F03400C8
:10055400F583EEF0A3EFF080007416256CF582E4C9
:100564003400F583E4F075F002E56CA42437F582D9
:10057400E5F03400F583E0FEA3E0FF75F002E56CDE
:10058400A42400F582E5F03400F583E0FCA3E0C385
:100594009FF570EC9EF56FC3E5709480E56F940051
:1005A4004006756F0075707FAF70EFD3956E40078E
:1005B400EF956EF56D8017E56EC313FEEFC39E5085
:1005C4000D744D256CF582E43400F583E4F0E57098
:1005D400250AF50AE43509F509E57025E0F570E525
:1005E4006F33F56FC3E50F9570E50E956F50178562
:1005F4006F0E85700FE56FC313FEE57013250FF5BD
:100604000FEE350EF50EE56DD3940050030206BDD2
:1006140074DC256CF582E43400F583747FF0744D4A
:10062400256CF582E43400F583E0707774F2256C70
:10063400F582E43400F583E004F074F2256CF5826D
:10064400E43400F583E0FFE5672464FDE433FCC390
:10065400EF9DEC6480F87480985003020707744D92
:10066400256CF582E43400F5837401F0050D75F012
:1006740002E56CA42437F582E5F03400F583E0FE4E
:10068400A3E0FF75F002E56CA42421F582E5F034C3
:1006940000F583EEF0A3EFF07416256CF582E434D4
:1006A40000805CE5672464FF74F2256CF582E43411
:1006B40000F583EFF0050D804A744D256CF582E456
:1006C4003400F583E0701074F2256CF582E4340094
:1006D400F5837464F0802C74F2256CF582E43400A4
:1006E400F583E014F074F2256CF582E43400F583AC
:1006F400E0C39464500D744D256CF582E43400F528
:1007040083E4F075F002E56CA42421F582E5F0346D
:1007140000F583E0FEA3E0FF75F002E56CA4243746
:10072400F582E5F03400F583E0FCA3E0FDC39FEC23
:100734009E502475F002E56CA42421F582E5F03482
:1007440000F583ECF0A3EDF0800D744D256CF5827B
:10075400E43400F583E4F0744D256CF582E4340050
:10076400F583E060030208D575F002E56CA424006B
:10077400F582E5F03400F583E0FEA3E0FF75F002B6
:10078400E56CA42437F582E5F03400F583E0FCA39E
:10079400E0C39FEC9E400302085E74DC256CF58286
:1007A400E43400F583E0FFE568540704FEC3EF9EDC
:1007B400F074DC256CF582E43400F583E0C3944DD9
:1007C40040030208D575F002E56CA42437F582E5F0
:1007D400F03400F583E0FEA3E0FF75F002E56CA4BD
:1007E4002400F582E5F03400F583E0FCA3E0FDD3BA
:1007F4009FEC9E50030208C7E56875F00230E7439A
:10080400E56CA42400F582E5F03400F583C083C0D0
:100814008275F002E56CA42437F582E5F03400F526
:1008240083E0FEA3E0FFC3ED9FFFEC9EC313FEEF46
:1008340013FFC3ED9FFFEC9ED082D083F0A3EFF0B3
:100844000208C7E56CA42400F582E5F03400F583C2
:1008540074FF75F0FE121684806974DC256CF582D1
:10086400E43400F583E004F074DC256CF582E434B0
:1008740000F583E0D394B1405875F002E56CA424EC
:1008840000F582E5F03400F583E0FEA3E0FF75F0A7
:1008940002E56CA42437F582E5F03400F583E0FC2E
:1008A400A3E0C39FFFEC9EC313FEEF13FF75F0029A
:1008B400E56CA42400F582E5F03400F583EE8FF0B6
:1008C40012168474DC256CF582E43400F583747F9D
:1008D400F0056C020268E50DD39569500BC3E50A77
:1008E400950FE509950E401D050CE56775F004A408
:1008F400FFC3E50C9FE5F06480F87480984002D251
:1009040003D205800BE50CD394004002150CC205FC
:10091400E50D7008C203F516F51780140517E517E1
:1009240070020516C3956BE516956A4003E4F50855
:10093400E4F515F514F513F512F56CE56CC395663D
:100944004003020B7EE4F56D744D256CF582E434AE
:1009540000F583E07003020A1C200506200303024D
:100964000A1775F002E56CA42437F582E5F034002B
:10097400F583E0FEA3E0FF75F002E56CA42421F505
:1009840082E5F03400F583E0FCA3E0FDD39FEC9E08
:10099400405BED9FF570EC9EF56F748B256CF8E66B
:1009A400FFC3E5709FE56F9400402174E7256CF563
:1009B40082E43400F583E004F074E7256CF582E406
:1009C4003400F583E0D39567404E804774E7256C87
:1009D400F582E43400F583E0D39400403B74E725CA
:1009E4006CF582E43400F583E014F0802B75F0029A
:1009F400E56CA42421F582E5F03400F583E475F078
:100A04000112168474E7256CF582E43400F583E45E
:100A1400F08005E56C04F56DE56D14B41800400331
:100A2400020B79900A3575F003A4C58325F0C583BC
:100A340073020A7D020A83020A89020A8F020A9556
:100A4400020A9B020AA1020AA7020AB1020ABB0215
:100A54000AC5020ACF020AD9020AE3020AED020A0F
:100A6400F7020B05020B13020B21020B2F020B3DA5
:100A7400020B4B020B59020B67E51544018028E574
:100A84001544028022E5154404801CE515440880C1
:100A940016E51544108010E5154420800AE5154438
:100AA400408004E5154480F515E514804EE515F500
:100AB40015E51444018044E515F515E51444028058
:100AC4003AE515F515E51444048030E515F515E50A
:100AD4001444088026E515F515E5144410801CE53A
:100AE40015F515E51444208012E515F515E51444B3
:100AF400408008E515F515E5144480F514E51380E8
:100B04006EE515F515E514F514E51344018060E56B
:100B140015F515E514F514E51344028052E515F5B1
:100B240015E514F514E51344048044E515F515E5BD
:100B340014F514E51344088036E515F515E514F5A8
:100B440014E51344108028E515F515E514F514E5AE
:100B5400134420801AE515F515E514F514E513443E
:100B640040800CE515F515E514F514E5134480F5FE
:100B740013E512F512056C02093FAF15AE14AD135F
:020B8400AC12B1
:010B8600224C
:1010C100021A1EE493A3F8E493A34003F68001F20D
:1010D10008DFF48029E493A3F85407240CC8C33330
:1010E100C4540F4420C8834004F456800146F6DFFF
:1010F100E4800B0102040810204080901BC1E47EB3
:10110100019360BCA3FF543F30E509541FFEE493F3
:10111100A360010ECF54C025E060A840B8E493A3BA
:10112100FAE493A3F8E493A3C8C582C8CAC583CAE5
:10113100F0A3C8C582C8CAC583CADFE9DEE780BE9D
:011BD4000010
:10161D00EF8DF0A4A8F0CF8CF0A428CE8DF0A42EE1
:02162D00FE229B
:10162F00BC000BBE0029EF8DF084FFADF022E4CC9F
:10163F00F875F008EF2FFFEE33FEEC33FCEE9DEC68
:10164F00984005FCEE9DFE0FD5F0E9E4CEFD22EDAE
:10165F00F8F5F0EE8420D21CFEADF075F008EF2FF8
:10166F00FFED33FD4007985006D5F0F222C398FDE9
:05167F000FD5F0EA2286
:10168400C5F0F8A3E028F0C5F0F8E58215827002F1
:061694001583E038F0228E
:0C169A00A42582F582E5F03583F583225B
:00000001FF
