C51 COMPILER V9.60.0.0   MAIN                                                              10/28/2024 10:56:10 PAGE 1   


C51 COMPILER V9.60.0.0, COMPILATION OF MODULE MAIN
OBJECT MODULE PLACED IN .\main.obj
COMPILER INVOKED BY: C:\Keil_v5\C51\BIN\C51.EXE ..\src\main.c OPTIMIZE(8,SPEED) BROWSE INCDIR(..\xDevice\CMSIS;..\xDevic
                    -e\Library\Include;..\tk_files;..\src;..\..\SinoMicon_TK_LIB_V20) DEFINE(TK_F03,EN_TK_LP) DEBUG OBJECTEXTEND PRINT(.\main
                    -.lst) TABS(2) OBJECT(.\main.obj)

line level    source

   1          /*********************************************************
   2          *Copyright (C), 2016-2027
   3          *文件名:  main.c
   4          *作  者:
   5          *版  本:  V1.00
   6          *日  期:  2023/04/27
   7          *描  述:
   8          *备  注:
   9          **********************************************************/
  10          
  11          #include "main.h"
  12          #include "tk_api.h"
  13          #include "F03_IIC.h"
  14          #include "f03_EEPROM.h"
  15          
  16          
  17          data uchar Threshold_UserSet[AllSensorNums];
  18          data uchar Last_SensorDiff[AllSensorNums];/* = {HS+9,HS+9,HS+9,HS+9,HS+9,HS+9,HS+9,HS+9,
  19                            HS+9,HS+9,HS+9,HS+9,HS+9,HS+9,HS+9,HS+9};  */
  20          uchar Buzz_Time;
  21          data uchar MCU_VERSION[3];
  22          bit bTick_4ms;
  23          bit bTick_1S;
  24          uchar Time_x4ms;
  25          uchar Time_x1s;
  26          
  27          extern bit bIIC_Active;
  28          
  29          void TKInit(void);
  30          void key_scan(void);
  31          void Key_Decode(void);
  32          
  33          void Sys_ini(void);
  34          void port_ini(void);
  35          void TMR2Init(void);
  36          void Buzzer_Stop(void);
  37          void Buzzer_Start(void);
  38          void SensorDiff_save(void);
  39          void Default_TKThreshold(void);
  40          
  41          void BaseTime_Init(void);
  42          /*********************************************************
  43          函数名: void main()
  44          描  述: 主函数
  45          输入值: 无
  46          输出值: 无
  47          返回值: 无
  48          **********************************************************/
  49          void main()
  50          {
  51   1        Sys_ini();   //上电初始化
  52   1        port_ini();
  53   1      
C51 COMPILER V9.60.0.0   MAIN                                                              10/28/2024 10:56:10 PAGE 2   

  54   1        /*IIC以及寄存器 初始化*/
  55   1        I2C_Init();
  56   1        Default_TKThreshold();
  57   1        
  58   1        BaseTime_Init();
  59   1        GIE = 1;
  60   1      
  61   1        /* 上电延时一段时间后，再初始化触摸按键 */
  62   1        if (Time_x1s <1)
  63   1        {
  64   2          CLR_WDT;
  65   2        }
  66   1        //INT3_IF = 0;
  67   1        //TMR2_C0 = 0;
  68   1        
  69   1        /* 触摸初始化 */
  70   1        TKInit();
  71   1        //Buzzer_Start();
  72   1        while (1)   
  73   1        {
  74   2          
  75   2          key_scan();
  76   2          if (bKeyScanEnd)
  77   2          {
  78   3            bKeyScanEnd = 0;
  79   3            SensorDiff_save();
  80   3            Key_Decode();
  81   3          }
  82   2      
  83   2          if (bTick_4ms && Buzz_Time)
  84   2          {
  85   3            bTick_4ms = 0;
  86   3            Buzzer_Stop();
  87   3          }
  88   2          
  89   2          EEPROM_Scan();
  90   2        }
  91   1      }
  92          
  93          
  94          void port_ini()
  95          {
  96   1        P0_OE = 0xFF;
  97   1        P1_OE = 0xFF;
  98   1        P2_OE = 0xFF;
  99   1        P3_OE = 0xFF;
 100   1      
 101   1        P3_ODE |= 0x0f; //P00~p03开漏输出
 102   1        P3_DAT  = 0x0F; //
 103   1        P2_DAT  = 0x00;
 104   1        P1_DAT  = 0x00;
 105   1        P0_DAT  = 0x00;
 106   1      }
 107          
 108          
 109          void Sys_ini()
 110          {
 111   1        CLK_PR=0XA5;
 112   1        CLK_C0=0x01;    //二分频
 113   1        CLK_PR=0X5a;
 114   1      
 115   1        WKUP_T_8US;     //8us 唤醒cpu
C51 COMPILER V9.60.0.0   MAIN                                                              10/28/2024 10:56:10 PAGE 3   

 116   1        VREF_C = 0xeb;    //开启VREF
 117   1      
 118   1        //WDT_C = 0x13;   //LRC * Timer *2 =4000ms
 119   1        CLR_WDT;
 120   1      }
 121          
 122          
 123          #if (defined EN_TK_LP)
 124          
 125          /*=================================*/
 126          /*  低功耗设置:应用程序因需配置或空函数
 127            1：关闭低功耗时不需要的外设
 128            2：输出口输出无效电平,输入口不可悬空
 129              1）不使用的IO，配置为输出低电平，或者禁止输入输出；
 130              2）输入脚，不能处于悬空状态；
 131              3）输出脚，输出无效电平；
 132          */
 133          void Seting_for_LPMode(void)
 134          {
 135   1        GIE = 0;
 136   1      
 137   1        P3_DAT = 0x0f;
 138   1        P30_FUN_IO; //GPIO
 139   1        P31_FUN_IO; //GPIO
 140   1      
 141   1        EINT0n_IF = 0;
 142   1        EINT1_SRC = 0x03;   //P31->EINT1,P30->EINT0
 143   1        EINT0_MD = 0x03;  //EINT0,EINT1下降沿触发
 144   1        EINT0n_IE = 0x03; //EINT1中断使能
 145   1      
 146   1      
 147   1        INT0_IF  = 0;
 148   1        INT0_IE  = 1; //EINT0~,INT3 中断向量使能
 149   1      
 150   1        TMR2_C0 = 0;
 151   1      }
 152          
 153          /*=================================*/
 154          /*  重新设置正常运行模式
 155            应用程序因需配置或空函数
 156          */
 157          
 158          void ReSeting_for_Normal(void)
 159          {
 160   1        P30_FUN_SDA;
 161   1        P31_FUN_SCL;
 162   1      
 163   1        INT0_IF  = 0;
 164   1        INT0_IE  = 0; //EINT0~,INT3 中断向量使能
 165   1      
 166   1        BaseTime_Init();
 167   1        GIE = 1;
 168   1      }
 169          
 170          #endif
 171          
 172          
 173          //====================================
 174          void Buzzer_Start(void)
 175          {
 176   1        Buzz_Time = 100/4;  //鸣叫时长
 177   1        P3_4 = 1;
C51 COMPILER V9.60.0.0   MAIN                                                              10/28/2024 10:56:10 PAGE 4   

 178   1      }
 179          
 180          void Buzzer_Stop(void)
 181          {
 182   1        if (--Buzz_Time == 0)
 183   1        {
 184   2          P3_4 = 0;   //鸣叫时长结束
 185   2        }
 186   1      }
 187          
 188          
 189          #if (AllSensorNums >= 17)
                data ulong Lastkey;   //按键值，按键数17~32
              #elif  (AllSensorNums >= 9)
 192            data uint  Lastkey;   //按键值，按键数9~16
 193          #else
                data uchar Lastkey;   //按键值，按键数1~8
              #endif
 196          
 197          //=========================================================
 198          
 199          uchar KeyTime;
 200          uchar Old_key;
 201          
 202          /*
 203            IRQ输出逻辑：
 204            有按键变化，输出负脉冲，脉宽为扫描一轮按键时间
 205          */
 206          
 207          
 208          void Key_Decode(void)
 209          {
 210   1        if (Lastkey != tk_key)
 211   1        {
 212   2          Lastkey = tk_key;
 213   2          
 214   2          if (Lastkey & 0x400)
 215   2          {
 216   3            io_POWER = 0;
 217   3            if ((PowerStatus == 0x02)||(PowerStatus == 0x03))
 218   3            {
 219   4              Buzzer_Start();
 220   4            }   
 221   3          }
 222   2          else
 223   2          {
 224   3            io_POWER = 1;
 225   3            if (((PowerStatus == 0x01)||(PowerStatus == 0x03)) && Lastkey)
 226   3            {//有按键，蜂鸣器鸣叫
 227   4              Buzzer_Start();
 228   4            }
 229   3          } 
 230   2          
 231   2        /*  if(PowerStatus == 0x00)
 232   2          {
 233   2          }
 234   2          else if(PowerStatus == 0x03)
 235   2          {
 236   2          if (Lastkey & 0x400)
 237   2          {
 238   2            io_POWER = 0;
 239   2            if (PowerStatus == 0x05)
C51 COMPILER V9.60.0.0   MAIN                                                              10/28/2024 10:56:10 PAGE 5   

 240   2            {
 241   2              Buzzer_Start();
 242   2            }   
 243   2          }
 244   2          else
 245   2          {
 246   2            io_POWER = 1;
 247   2            if ((PowerStatus == 0x05) && Lastkey)
 248   2            {//有按键，蜂鸣器鸣叫
 249   2              Buzzer_Start();
 250   2            }
 251   2          } 
 252   2          }
 253   2          else if(PowerStatus == 0x02)
 254   2          {
 255   2            io_POWER = 1;
 256   2            if ((PowerStatus == 0x05) && Lastkey)
 257   2            {//有按键，蜂鸣器鸣叫
 258   2              Buzzer_Start();
 259   2            }
 260   2          }*/
 261   2          //按键变化(按下和释放)输出负脉冲
 262   2          io_IRQ = 0;
 263   2        }
 264   1        else 
 265   1        {
 266   2          //if (++KeyTime >= 4)
 267   2          {
 268   3            io_IRQ = 1;
 269   3          }
 270   2        }
 271   1      
 272   1      }
 273          
 274          
 275          
 276          //======================================
 277          uchar NotTK_time;
 278          
 279          data uint tk_base[AllSensorNums];// = {0x03e0,0x03e1,0x03e2,0x03e3,0x03e4,0x03e5,
 280                            //0x03e6,0x03e7,0x03e8,0x03e9,0x03ea};
 281          void SensorDiff_save(void)
 282          {
 283   1        uchar i;
 284   1        uint  tk_bits;
 285   1        
 286   1        uint SensorDiff;
 287   1      
 288   1      
 289   1        for (i = 0; i <AllSensorNums; i++)
 290   1        {
 291   2          tk_base[i] = BaseLine[i];
 292   2        }
 293   1      
 294   1        if (tk_key)
 295   1        {
 296   2          tk_bits = tk_key;
 297   2          for (i = 0; i <AllSensorNums; i++)
 298   2          {
 299   3            
 300   3            SensorDiff = 0;
 301   3            if (BaseLine[i] > RawData[i])
C51 COMPILER V9.60.0.0   MAIN                                                              10/28/2024 10:56:10 PAGE 6   

 302   3            {
 303   4              SensorDiff = BaseLine[i] - RawData[i];
 304   4              if (SensorDiff >= 128)
 305   4              {
 306   5                SensorDiff = 127;
 307   5              }
 308   4            }
 309   3      
 310   3            if ((tk_bits & 0x01)&&((uchar)SensorDiff >Last_SensorDiff[i]))
 311   3            {
 312   4              Last_SensorDiff[i] = (uchar)SensorDiff;
 313   4            }
 314   3      
 315   3            tk_bits >>= 1;
 316   3          }
 317   2          NotTK_time = 0;
 318   2        }
 319   1      /*  else if ((NotTK_time <250) && (++NotTK_time >=250))
 320   1        {
 321   1          for (i = 0; i <AllSensorNums; i++)
 322   1          {
 323   1            Last_SensorDiff[i] = 0;
 324   1          }
 325   1        } */
 326   1      }
 327          
 328          
 329          
 330          //=======================================
 331          void ExIOINT_interrupt (void) interrupt 0
 332          {//外部中断0~7
 333   1        INT0_IE = 0;
 334   1        INT0_IF = 0;
 335   1        EINT0n_IE = 0;  //EINT1中断使能
 336   1        EINT0n_IF = 0;
 337   1      
 338   1        bIIC_Active = 1;
 339   1      }
 340          
 341          
 342          //====================================
 343          
 344          void BaseTime_Init(void)
 345          {//-系统时钟8MHZ-
 346   1        TMR2_CYL = 249;       //8M下为125ns * 250*8*16=4000us
 347   1        TMR2_CYH = 0;       //8M下为125ns * 250*8*16=4000us 
 348   1        TMR2_C0 = 0xcf;      //tmr2使能，8分频,后分频为16
 349   1        TMR2_INT_EN;
 350   1        
 351   1        INT2_EN;
 352   1      
 353   1        Time_x4ms = 0;
 354   1        Time_x1s = 0;
 355   1      }
 356          
 357          
 358          void BaseTime_interrupt (void) interrupt 7
 359          {
 360   1        if (TMR2_IF)
 361   1        {
 362   2          TMR2_IF = 0;
 363   2      
C51 COMPILER V9.60.0.0   MAIN                                                              10/28/2024 10:56:10 PAGE 7   

 364   2          bTick_4ms = 1;
 365   2          if (++Time_x4ms >= 250)
 366   2          {
 367   3            Time_x4ms = 0;
 368   3            bTick_1S = 1;
 369   3          }
 370   2        }
 371   1      
 372   1        INT2_IF = 0;
 373   1      }
 374          
 375          
 376          
 377          void LVD_interrupt (void) interrupt 11
 378          {
 379   1        INT6_IF = 0;
 380   1      }
 381          
 382          
 383          //-------------------------------------------
 384          


MODULE INFORMATION:   STATIC OVERLAYABLE
   CODE SIZE        =    581    ----
   CONSTANT SIZE    =   ----    ----
   XDATA SIZE       =   ----    ----
   PDATA SIZE       =   ----    ----
   DATA SIZE        =     55       4
   IDATA SIZE       =   ----    ----
   BIT SIZE         =      2    ----
END OF MODULE INFORMATION.


C51 COMPILATION COMPLETE.  0 WARNING(S),  0 ERROR(S)
