A51 MACRO ASSEMBLER  STARTUP_F03                                                          10/28/2024 10:56:10 PAGE     1


MACRO ASSEMBLER A51 V8.2.7.0
OBJECT MODULE PLACED IN .\STARTUP_F03.obj
ASSEMBLER INVOKED BY: C:\Keil_v5\C51\BIN\A51.EXE ..\xDevice\StartUp\STARTUP_F03.A51 SET(SMALL) DEBUG PRINT(.\STARTUP_F03
                      .lst) OBJECT(.\STARTUP_F03.obj) EP

LOC  OBJ            LINE     SOURCE

                       1     
                       2     $nomod51 
                       3     ;------------------------------------------------------------------------------
                       4     ;  This file is part of the C51 Compiler package
                       5     ;  Copyright (c) 1988-2005 Keil Elektronik GmbH and Keil Software, Inc.
                       6     ;  Version 8.01
                       7     ;
                       8     ;  *** <<< Use Configuration Wizard in Context Menu >>> ***
                       9     ;------------------------------------------------------------------------------
                      10     ;  STARTUP.A51:  This code is executed after processor reset.
                      11     ;
                      12     ;  To translate this file use A51 with the following invocation:
                      13     ;
                      14     ;     A51 STARTUP.A51
                      15     ;
                      16     ;  To link the modified STARTUP.OBJ file to your application use the following
                      17     ;  Lx51 invocation:
                      18     ;
                      19     ;     Lx51 your object file list, STARTUP.OBJ  controls
                      20     ;
                      21     ;------------------------------------------------------------------------------
                      22     ;
                      23     ;  User-defined <h> Power-On Initialization of Memory
                      24     ;
                      25     ;  With the following EQU statements the initialization of memory
                      26     ;  at processor reset can be defined:
                      27     ;
                      28     ; <o> IDATALEN: IDATA memory size <0x0-0x100>
                      29     ;     <i> Note: The absolute start-address of IDATA memory is always 0
                      30     ;     <i>       The IDATA space overlaps physically the DATA and BIT areas.
  0100                31     IDATALEN        EQU     100H
                      32     ;
                      33     ; <o> XDATASTART: XDATA memory start address <0x0-0xFFFF> 
                      34     ;     <i> The absolute start address of XDATA memory
  0000                35     XDATASTART      EQU     0     
                      36     ;
                      37     ; <o> XDATALEN: XDATA memory size <0x0-0xFFFF> 
                      38     ;     <i> The length of XDATA memory in bytes.
  0300                39     XDATALEN        EQU     300H
                      40     ;
                      41     ; <o> PDATASTART: PDATA memory start address <0x0-0xFFFF> 
                      42     ;     <i> The absolute start address of PDATA memory
  0000                43     PDATASTART      EQU     0H
                      44     ;
                      45     ; <o> PDATALEN: PDATA memory size <0x0-0xFF> 
                      46     ;     <i> The length of PDATA memory in bytes.
  0000                47     PDATALEN        EQU     0H
                      48     ;
                      49     ;</h>
                      50     ;------------------------------------------------------------------------------
                      51     ;
                      52     ;<h> Reentrant Stack Initialization
                      53     ;
                      54     ;  The following EQU statements define the stack pointer for reentrant
                      55     ;  functions and initialized it:
                      56     ;
                      57     ; <h> Stack Space for reentrant functions in the SMALL model.
A51 MACRO ASSEMBLER  STARTUP_F03                                                          10/28/2024 10:56:10 PAGE     2

                      58     ;  <q> IBPSTACK: Enable SMALL model reentrant stack
                      59     ;     <i> Stack space for reentrant functions in the SMALL model.
  0000                60     IBPSTACK        EQU     0       ; set to 1 if small reentrant is used.
                      61     ;  <o> IBPSTACKTOP: End address of SMALL model stack <0x0-0xFF>
                      62     ;     <i> Set the top of the stack to the highest location.
  0100                63     IBPSTACKTOP     EQU     0xFF +1     ; default 0FFH+1  
                      64     ; </h>
                      65     ;
                      66     ; <h> Stack Space for reentrant functions in the LARGE model.      
                      67     ;  <q> XBPSTACK: Enable LARGE model reentrant stack
                      68     ;     <i> Stack space for reentrant functions in the LARGE model.
  0000                69     XBPSTACK        EQU     0       ; set to 1 if large reentrant is used.
                      70     ;  <o> XBPSTACKTOP: End address of LARGE model stack <0x0-0xFFFF>
                      71     ;     <i> Set the top of the stack to the highest location.
  0000                72     XBPSTACKTOP     EQU     0xFFFF +1   ; default 0FFFFH+1 
                      73     ; </h>
                      74     ;
                      75     ; <h> Stack Space for reentrant functions in the COMPACT model.    
                      76     ;  <q> PBPSTACK: Enable COMPACT model reentrant stack
                      77     ;     <i> Stack space for reentrant functions in the COMPACT model.
  0000                78     PBPSTACK        EQU     0       ; set to 1 if compact reentrant is used.
                      79     ;
                      80     ;   <o> PBPSTACKTOP: End address of COMPACT model stack <0x0-0xFFFF>
                      81     ;     <i> Set the top of the stack to the highest location.
  0100                82     PBPSTACKTOP     EQU     0xFF +1     ; default 0FFH+1  
                      83     ; </h>
                      84     ;</h>
                      85     ;------------------------------------------------------------------------------
                      86     ;
                      87     ;  Memory Page for Using the Compact Model with 64 KByte xdata RAM
                      88     ;  <e>Compact Model Page Definition
                      89     ;
                      90     ;  <i>Define the XDATA page used for PDATA variables. 
                      91     ;  <i>PPAGE must conform with the PPAGE set in the linker invocation.
                      92     ;
                      93     ; Enable pdata memory page initalization
  0000                94     PPAGEENABLE     EQU     0       ; set to 1 if pdata object are used.
                      95     ;
                      96     ; <o> PPAGE number <0x0-0xFF> 
                      97     ; <i> uppermost 256-byte address of the page used for PDATA variables.
  0000                98     PPAGE           EQU     0
                      99     ;
                     100     ; <o> SFR address which supplies uppermost address byte <0x0-0xFF> 
                     101     ; <i> most 8051 variants use P2 as uppermost address byte
  00A0               102     PPAGE_SFR       DATA    0A0H
                     103     ;
                     104     ; </e>
                     105     ;------------------------------------------------------------------------------
                     106     
                     107     ; Standard SFR Symbols 
  00E0               108     ACC     DATA    0E0H
  00F0               109     B       DATA    0F0H
  0081               110     SP      DATA    81H
  0082               111     DPL     DATA    82H
  0083               112     DPH     DATA    83H
                     113     
                     114                     NAME    ?C_STARTUP
                     115     
                     116     
                     117     ?C_C51STARTUP   SEGMENT   CODE
                     118     ?STACK          SEGMENT   IDATA
                     119     
----                 120                     RSEG    ?STACK
0000                 121                     DS      1
                     122     
                     123                     EXTRN CODE (?C_START)
A51 MACRO ASSEMBLER  STARTUP_F03                                                          10/28/2024 10:56:10 PAGE     3

                     124                     PUBLIC  ?C_STARTUP
                     125     
----                 126                     CSEG    AT      0
0000 020000   F      127     ?C_STARTUP:     LJMP    STARTUP1
                     128     
----                 129                     RSEG    ?C_C51STARTUP
                     130     
0000                 131     STARTUP1:
0000 758410          132                     mov     084h, #010h
                     133     
                     134     IF IDATALEN <> 0
0003 78FF            135                     MOV     R0,#IDATALEN - 1
0005 E4              136                     CLR     A
0006 F6              137     IDATALOOP:      MOV     @R0,A
0007 D8FD            138                     DJNZ    R0,IDATALOOP
                     139     ENDIF
                     140     
                     141     IF XDATALEN <> 0
0009 900000          142                     MOV     DPTR,#XDATASTART
000C 7F00            143                     MOV     R7,#LOW (XDATALEN)
                     144       IF (LOW (XDATALEN)) <> 0
                                             MOV     R6,#(HIGH (XDATALEN)) +1
                               ELSE
000E 7E03            147                     MOV     R6,#HIGH (XDATALEN)
                     148       ENDIF
0010 E4              149                     CLR     A
0011 F0              150     XDATALOOP:      MOVX    @DPTR,A
0012 A3              151                     INC     DPTR
0013 DFFC            152                     DJNZ    R7,XDATALOOP
0015 DEFA            153                     DJNZ    R6,XDATALOOP
                     154     ENDIF
                     155     
                     156     IF PPAGEENABLE <> 0
                                             MOV     PPAGE_SFR,#PPAGE
                             ENDIF
                     159     
                     160     IF PDATALEN <> 0
                                             MOV     R0,#LOW (PDATASTART)
                                             MOV     R7,#LOW (PDATALEN)
                                             CLR     A
                             PDATALOOP:      MOVX    @R0,A
                                             INC     R0
                                             DJNZ    R7,PDATALOOP
                             ENDIF
                     168     
                     169     IF IBPSTACK <> 0
                             EXTRN DATA (?C_IBP)
                             
                                             MOV     ?C_IBP,#LOW IBPSTACKTOP
                             ENDIF
                     174     
                     175     IF XBPSTACK <> 0
                             EXTRN DATA (?C_XBP)
                             
                                             MOV     ?C_XBP,#HIGH XBPSTACKTOP
                                             MOV     ?C_XBP+1,#LOW XBPSTACKTOP
                             ENDIF
                     181     
                     182     IF PBPSTACK <> 0
                             EXTRN DATA (?C_PBP)
                                             MOV     ?C_PBP,#LOW PBPSTACKTOP
                             ENDIF
                     186     
0017 758100   F      187                     MOV     SP,#?STACK-1
                     188     
                     189     ; This code is required if you use L51_BANK.A51 with Banking Mode 4
A51 MACRO ASSEMBLER  STARTUP_F03                                                          10/28/2024 10:56:10 PAGE     4

                     190     ;<h> Code Banking
                     191     ; <q> Select Bank 0 for L51_BANK.A51 Mode 4
                     192     
                             
                             
                                             
                             
                     197     ;</h>
                     198       
                     199     ;cal pr 0x9090~0x909f
                     200     
001A 909090          201                     mov     dptr, #09090h  
001D 74A5            202                     mov     a, #0a5h
001F F0              203                     movx    @dptr, a
                     204                                     
0020 74A0            205                     mov     a, #0A0h
0022 909095          206                     mov     dptr, #09095h  
0025 F0              207                     movx    @dptr, a
                     208                                     
0026 A3              209                                     inc     dptr
0027 7400            210                     mov     a, #000h
0029 F0              211                                     movx    @dptr, a
                     212                                     
002A 909090          213                     mov     dptr, #09090h 
002D F0              214                     movx    @dptr, a
                     215     
002E 909080          216                     mov     dptr, #09080h  
0031 74A5            217                     mov     a, #0a5h
0033 F0              218                     movx    @dptr, a
                     219     
0034 908020          220                     mov     dptr, #08020h
0037 7400            221                     mov     a, #00h
0039 93              222                     movc    a, @a+dptr
003A 909082          223                     mov     dptr, #09082h     ;vbg
003D F0              224                     movx    @dptr, a
                     225                                     
003E 7430            226                     mov     a, #030h
0040 909083          227                     mov     dptr, #09083h  
0043 F0              228                     movx    @dptr, a
                     229     
0044 9090F0          230                     mov     dptr, #090f0h  
0047 E0              231                     movx    a, @dptr
0048 4480            232                     orl     a, #080h
004A F0              233                     movx    @dptr, a
                     234     
                     235     
                                             
                                             
                                             
                                             
                                             
                             
                                             
                                             
                                             
                                             
                             
                     247     
                     248     
004B 758AA0          249                     mov     8ah,#0a0h
004E 908027          250                     mov     dptr, #08027h   ;16m校准地址为#08027h
0051 7400            251                     mov     a, #00h
0053 93              252                     movc    a, @a+dptr
0054 F58A            253                     mov     8ah,a   
                     254     
0056 908026          255                     mov     dptr, #08026h   ;16m校准地址为#08026h
A51 MACRO ASSEMBLER  STARTUP_F03                                                          10/28/2024 10:56:10 PAGE     5

0059 7400            256                     mov     a, #00h
005B 93              257                     movc    a, @a+dptr
005C F589            258                     mov     89h,a 
                     259     
005E 758A50          260                     mov     8ah,#050h
                     261                                     
0061 909080          262                     mov     dptr, #09080h  
0064 74A5            263                     mov     a, #0a5h
0066 F0              264                     movx    @dptr, a
                     265                                     
0067 020000   F      266                     LJMP    ?C_START
                     267     
                     268                     END
                             
A51 MACRO ASSEMBLER  STARTUP_F03                                                          10/28/2024 10:56:10 PAGE     6

SYMBOL TABLE LISTING
------ ----- -------


N A M E             T Y P E  V A L U E   ATTRIBUTES

?C_C51STARTUP. . .  C SEG    006AH       REL=UNIT
?C_START . . . . .  C ADDR   -----       EXT
?C_STARTUP . . . .  C ADDR   0000H   A   
?STACK . . . . . .  I SEG    0001H       REL=UNIT
ACC. . . . . . . .  D ADDR   00E0H   A   
B. . . . . . . . .  D ADDR   00F0H   A   
DPH. . . . . . . .  D ADDR   0083H   A   
DPL. . . . . . . .  D ADDR   0082H   A   
IBPSTACK . . . . .  N NUMB   0000H   A   
IBPSTACKTOP. . . .  N NUMB   0100H   A   
IDATALEN . . . . .  N NUMB   0100H   A   
IDATALOOP. . . . .  C ADDR   0006H   R   SEG=?C_C51STARTUP
PBPSTACK . . . . .  N NUMB   0000H   A   
PBPSTACKTOP. . . .  N NUMB   0100H   A   
PDATALEN . . . . .  N NUMB   0000H   A   
PDATASTART . . . .  N NUMB   0000H   A   
PPAGE. . . . . . .  N NUMB   0000H   A   
PPAGEENABLE. . . .  N NUMB   0000H   A   
PPAGE_SFR. . . . .  D ADDR   00A0H   A   
SP . . . . . . . .  D ADDR   0081H   A   
STARTUP1 . . . . .  C ADDR   0000H   R   SEG=?C_C51STARTUP
XBPSTACK . . . . .  N NUMB   0000H   A   
XBPSTACKTOP. . . .  N NUMB   0000H   A   
XDATALEN . . . . .  N NUMB   0300H   A   
XDATALOOP. . . . .  C ADDR   0011H   R   SEG=?C_C51STARTUP
XDATASTART . . . .  N NUMB   0000H   A   


REGISTER BANK(S) USED: 0 


ASSEMBLY COMPLETE.  0 WARNING(S), 0 ERROR(S)
