C51 COMPILER V9.60.0.0   TK_API                                                            10/28/2024 10:56:11 PAGE 1   


C51 COMPILER V9.60.0.0, COMPILATION OF MODULE TK_API
OBJECT MODULE PLACED IN .\tk_api.obj
COMPILER INVOKED BY: C:\Keil_v5\C51\BIN\C51.EXE ..\tk_files\tk_api.c OPTIMIZE(8,SPEED) BROWSE INCDIR(..\xDevice\CMSIS;..
                    -\xDevice\Library\Include;..\tk_files;..\src;..\..\SinoMicon_TK_LIB_V20) DEFINE(TK_F03,EN_TK_LP) DEBUG OBJECTEXTEND PRINT
                    -(.\tk_api.lst) TABS(2) OBJECT(.\tk_api.obj)

line level    source

   1          /*********************************************************
   2          *Copyright (C), 2016-2027
   3          *文件名:  tk_api.c
   4          *作  者:  sinomicon
   5          *版  本:  
   6          *日  期:  2022/09/16
   7          *描  述:
   8          *备  注:    触摸按键应用接口函数
   9          **********************************************************/
  10          #include "main.h"
  11          #include "tk_config.h"
  12          //#include "F06_IIC.h"
  13          #include "f03_EEPROM.h"
  14          
  15          extern idata uchar TKThreshold[];
  16          extern idata uchar LP_TKThreshold[];
  17          extern data uchar MCU_VERSION[];
  18          extern data uchar Threshold_UserSet[];
  19          extern data uchar Last_SensorDiff[];
  20          
  21          extern bit bIIC_Active;
  22          extern uchar PowerStatus;   //0x80:休眠，0x05：待机
  23          extern uchar Version_v; 
  24          extern uchar Version_m;
  25          extern uchar Version_p;
  26          
  27          //--------------------------------------------------
  28          
  29          #if (AllSensorNums >= 17)
                data ulong tk_key;    //按键值，按键数17~32
              #elif  (AllSensorNums >= 9)
  32            data uint  tk_key;    //按键值，按键数9~16
  33          #else
                data uchar tk_key;    //按键值，按键数1~8
              #endif
  36          
  37          bit bKeyScanEnd;  //扫描完所有按键一次置1 
  38          
  39          #if (defined EN_TK_LP)
  40          bit lp_mode;    //lp_mode 为1时运行低功耗，为0是运行高功耗模式
  41          bit lp_mode_tg;   //为1是启动触发低功耗
  42          #endif
  43          
  44          //=========================================================
  45          void Seting_for_LPMode(void);   //应用代码定义的外部函数
  46          void ReSeting_for_Normal(void);   //应用代码定义的外部函数
  47          void Load_TKThreshold(void);
  48          void Default_TKThreshold(void);
  49          //
  50          void LP_wakeup_flt(void);
  51          void TK_SLEEP_mode(void);
  52          void LP_TKInit(void);
  53          void Delayus(uint q);
C51 COMPILER V9.60.0.0   TK_API                                                            10/28/2024 10:56:11 PAGE 2   

  54          /*********************************************************/
  55          void LP_TKThreshold_Load(void)
  56          {
  57   1        uint u16_temp;
  58   1      
  59   1        u16_temp = TKThreshold[0] + TKThreshold[1] +TKThreshold[2];
  60   1        LP_TKThreshold[0] = u16_temp/9;
  61   1        if (LP_TKThreshold[0] < 4)
  62   1        {
  63   2          LP_TKThreshold[0] = 4;
  64   2        }
  65   1      
  66   1        u16_temp = TKThreshold[3] + TKThreshold[4] +TKThreshold[5];
  67   1        LP_TKThreshold[1] = u16_temp/9;
  68   1        if (LP_TKThreshold[1] < 4)
  69   1        {
  70   2          LP_TKThreshold[1] = 4;
  71   2        }
  72   1      
  73   1        u16_temp   = TKThreshold[6] + TKThreshold[7];
  74   1        LP_TKThreshold[2] = u16_temp >>2;
  75   1        if (LP_TKThreshold[2] < 4)
  76   1        {
  77   2          LP_TKThreshold[2] = 4;
  78   2        }
  79   1      }
  80          
  81          
  82          
  83          void key_scan(void)
  84          {
  85   1        static data uint NotTuch_Time = 0;
  86   1      
  87   1      #if (defined EN_TK_LP)
  88   1      
  89   1        if(lp_mode == 1)      
  90   1        {//低功耗扫描模式
  91   2          TK_SLEEP_mode();  
  92   2          if (bIIC_Active)
  93   2          {//IIC唤醒，退出低功耗
  94   3            lp_mode = 0;
  95   3            bIIC_Active = 0;
  96   3          }
  97   2      
  98   2          if (lp_mode)
  99   2          {
 100   3            LP_SensorCounted = 0;
 101   3            while (LP_SensorCounted<LP_AllSensorNums) 
 102   3            {//扫描全部用到的TK组
 103   4              LP_TK_scan();
 104   4              LP_tk_data_store();
 105   4            }
 106   3            LP_TKThreshold_Load();
 107   3            tk_key = LP_tk_key(LP_AllSensorNums);
 108   3      
 109   3            if(tk_key!=0) 
 110   3            {//确认按键唤醒
 111   4              LP_wakeup_flt();  //可能执行 lp_mode
 112   4              tk_key = 0;
 113   4            }
 114   3      
 115   3          } 
C51 COMPILER V9.60.0.0   TK_API                                                            10/28/2024 10:56:11 PAGE 3   

 116   2      
 117   2          if (lp_mode == 0)
 118   2          {//唤醒确认，恢复正常运行
 119   3            //禁止所有TK有关的中断
 120   3            INT4_IE = 0;
 121   3            INT4_IF = 0;
 122   3            TK_INT_DIS;
 123   3            //恢复TK扫描正常配置
 124   3            TK_C0 = REG_TK_C0;
 125   3            TK_C1 = REG_TK_C1;
 126   3            TK_C2 = REG_TK_C2;
 127   3            
 128   3            ReSeting_for_Normal();  //外部函数，应用程序中定义
 129   3            SensorCounted  = 0;
 130   3            TK_scan();     //启动正常TK扫描
 131   3          }
 132   2        }
 133   1        else
 134   1      #endif
 135   1        {//正常按键扫描模式
 136   2          if (TK_C0 & 0x04)   //如果出错无法产生中断，增加出错保护机制
 137   2          {
 138   3            TK_C0 &= 0x7f;
 139   3            TK_C0 |= 0x80;
 140   3            SensorCounted = 0;
 141   3            TK_scan();
 142   3          }
 143   2          
 144   2          if(TK_IF==1)
 145   2          {
 146   3            tk_data_store();   //存储扫描数据
 147   3            if(SensorCounted >=AllSensorNums)    
 148   3            {//所有按键均完成一轮扫描
 149   4              Load_TKThreshold();
 150   4              tk_key = TK_key_out(AllSensorNums,DEBOUNCE,FLOW_MODE,MAX_KEY_MUL,CONT_KEY_LIMIT_CNT); //计算按键值
 151   4              SensorCounted = 0;
 152   4              bKeyScanEnd = 1;
 153   4        //      NotTuch_Time++;
 154   4            }
 155   3            #if (defined EN_TK_LP)
 156   3            if((PowerStatus == 0x05) || (tk_key != 0) || bIIC_Active)
 157   3            {
 158   4              bIIC_Active = 0;
 159   4              NotTuch_Time = 0;
 160   4            }
 161   3      
 162   3            if(NotTuch_Time >= SLEEP_DLY)       //在整体数据处理完成后，切4s无按键输入，可进入sleep
 163   3            {
 164   4              lp_mode_tg = 1;             //在一组高功耗扫描完成后,启动低功耗扫描
 165   4            }
 166   3            else
 167   3            #endif
 168   3            {
 169   4              TK_scan();     //启动下一次扫描,满足进入低功耗条件后，不再启动高功耗扫描
 170   4            }
 171   3          }
 172   2          
 173   2        #if (defined EN_TK_LP)
 174   2          if(lp_mode_tg==1)
 175   2          {/* 进入低功耗模式 */
 176   3            io_IRQ = 1;
 177   3            lp_mode_tg = 0;
C51 COMPILER V9.60.0.0   TK_API                                                            10/28/2024 10:56:11 PAGE 4   

 178   3            bKeyScanEnd = 0;
 179   3            NotTuch_Time = 0;
 180   3      
 181   3            Seting_for_LPMode();  //外部函数，应用程序中定义
 182   3            INT4_IE = 1;      //使能INT4_IE,TK_IF方可唤醒IDLE
 183   3            lp_mode = 1;      //置位TK低功耗模式标记
 184   3            LP_TKInit();      //低功耗初始化
 185   3          }
 186   2        #endif
 187   2        }
 188   1      }
 189          
 190          /**********************************************************/
 191          void TKInit(void)
 192          {
 193   1        TK_INT_DIS;
 194   1        TK_ini;            //上电扫描基值
 195   1      
 196   1        SensorCounted = 0; //重要数据连接寄存器，扫描重0x00开始
 197   1        TK_scan();      //启动下一次扫描
 198   1      #if (defined EN_TK_LP)
 199   1        lp_mode_tg = 0;
 200   1        lp_mode = 0;    //上电为高功耗模式
 201   1      #endif
 202   1      }
 203          
 204          //==============================
 205          #if (defined EN_TK_LP)
 206          
 207          /* 配置低功耗下的TK扫描运行,间隔唤醒时间 */
 208          void LP_TKInit(void)
 209          {
 210   1        TK_INT_DIS;
 211   1        LP_ScanTimes = 0;
 212   1      
 213   1      #ifdef LP_DEBUG
                #if (defined TK_F05)
                  WDT_C = 0x12;   //2048MS;
                #else
                  WDT_C = 0x10;   //2560MS;
                #endif
              #else
 220   1        #if (defined TK_F05)
                  WDT_C = 0X1a;   //8ms
                #else
 223   1          WDT_C  = 0X1f;    //10MS;
 224   1        #endif
 225   1      #endif
 226   1      
 227   1        //先扫描一次按键组
 228   1        while(LP_ScanTimes<12)
 229   1        {
 230   2          TK_SLEEP_mode();
 231   2          Delayus(20);
 232   2          LP_SensorCounted = 0;
 233   2          while (LP_SensorCounted<LP_AllSensorNums)
 234   2          {
 235   3            CLR_WDT;
 236   3            LP_TK_scan();
 237   3            LP_tk_data_store();
 238   3          }
 239   2          LP_tk_key(LP_AllSensorNums);
C51 COMPILER V9.60.0.0   TK_API                                                            10/28/2024 10:56:11 PAGE 5   

 240   2        }
 241   1      
 242   1        #if (defined TK_F05)
                  WDT_C = 0X16;    //128ms唤醒
                #else
 245   1          WDT_C = 0X1d;    //100ms唤醒
 246   1        #endif
 247   1        LP_SensorCounted = 0; 
 248   1      }
 249          
 250          /* 进入SLEEP-等待WDT唤醒*/
 251          void TK_SLEEP_mode(void)
 252          {
 253   1        VREF_C =  0;
 254   1        #if (defined TK_F05)
                  TK_VREF_C = 0x00; // 08H：使能TK参考电压  00H：关闭TK参考模块
                #endif
 257   1        TK_C0  =  0;
 258   1        TK_C1  =  0;
 259   1        TK_C2  =  0;
 260   1        #if (defined TK_F10)
                  TK_C3  =  0;
                #endif
 263   1        CXPIN_OEN();
 264   1        CXPIN_LOW();      //CX脚输出0
 265   1      
 266   1        CLR_WDT;
 267   1        #if  (defined TK_F03)
 268   1        EINT0n_IF = 0;
 269   1        #endif
 270   1      
 271   1      #ifdef LP_DEBUG
                Delayus(500);
              #else
 274   1        SLEEP_MD;
 275   1      #endif
 276   1        
 277   1        /* 如果外部唤醒，IIC活跃 */
 278   1        if (EINT0n_IF &0x03/*!P0_1*/)
 279   1        {
 280   2          lp_mode = 0;  //退出低功耗
 281   2        }
 282   1      
 283   1        /* 从睡眠中唤醒后 */
 284   1        VREF_C = 0x80;    //让vref 快速建立 
 285   1      #if (defined TK_F05)
                TK_VREF_C = 0x08; // 08H：使能TK参考电压  00H：关闭TK参考模块
              #endif
 288   1        SYSCK_DIV32;
 289   1        SYSCK_DIV2;
 290   1        Delayus(1);     //
 291   1      #if (defined TK_F10)
                TK_C3  =  0x51;
              #endif
 294   1      
 295   1        CXPIN_LOW();      //CX脚输出0
 296   1        VREF_C = REG_VREF_C;  //
 297   1      
 298   1        TK_C0 = LP_REG_TK_C0;
 299   1        TK_C1 = LP_REG_TK_C1;
 300   1        TK_C2 = LP_REG_TK_C2;
 301   1      }
C51 COMPILER V9.60.0.0   TK_API                                                            10/28/2024 10:56:11 PAGE 6   

 302          
 303          /*确认触摸唤醒：扫描13次，连续6次检测到触摸，则确认*/
 304          void LP_wakeup_flt(void)
 305          {
 306   1        uchar lp_loop_cnt;
 307   1        uchar lp_adder_flt = 0;
 308   1      
 309   1        for (lp_loop_cnt = 0; lp_loop_cnt<13; lp_loop_cnt++)
 310   1        {
 311   2          LP_SensorCounted = 0;
 312   2          while (LP_SensorCounted<LP_AllSensorNums)
 313   2          {
 314   3            LP_TK_scan();
 315   3            LP_tk_data_store();
 316   3          }
 317   2          tk_key = LP_tk_key(LP_AllSensorNums);
 318   2          if(tk_key != 0 )
 319   2          {
 320   3            lp_adder_flt = lp_adder_flt + 1;           //低功耗按键滤波
 321   3            if(lp_adder_flt>6)
 322   3            {
 323   4              lp_mode = 0;      //切换成高功耗模式
 324   4              break;
 325   4            }
 326   3          }
 327   2          else
 328   2          {
 329   3            break;
 330   3          }
 331   2        }
 332   1      }
 333          
 334          
 335          void Delayus(uint q)
 336          {
 337   1        uint i,j;
 338   1        for(i=0; i<q; i++)
 339   1          for(j=0; j<10; j++)
 340   1          {
 341   2            WDT_OP=0x5a;                //清WDT计数器
 342   2          };
 343   1      }
 344          
 345          #endif
 346          
 347          void TK_interrupt (void) interrupt 9
 348          {//TK中断，必须保留
 349   1        INT4_IF = 0;
 350   1        TK_INT_DIS;
 351   1      }
 352          
 353          
 354          void Load_TKThreshold(void)
 355          {
 356   1        unsigned char i;
 357   1        for (i = 0; i < AllSensorNums; i++)
 358   1        {
 359   2          TKThreshold[i] = Threshold_UserSet[i];
 360   2        }
 361   1      }
 362          
 363          void Default_TKThreshold(void)
C51 COMPILER V9.60.0.0   TK_API                                                            10/28/2024 10:56:11 PAGE 7   

 364          {
 365   1        unsigned char i, value;
 366   1        MCU_VERSION[0] = Version_m;
 367   1        MCU_VERSION[1] = Version_p;
 368   1        MCU_VERSION[2] = Version_v;
 369   1        TKThreshold_ini();
 370   1        for (i = 0; i < AllSensorNums; i++)
 371   1        {
 372   2          Threshold_UserSet[i] = TKThreshold[i];
 373   2          // EEPROM_Write(SENSE_ADDR+i, Threshold_UserSet[i]);
 374   2        }
 375   1        value = EEPROM_Read(INIT_ADDR);
 376   1        if (value == INIT_VALUE)
 377   1        {
 378   2          // for (i = 0; i < AllSensorNums; i++)
 379   2          // {
 380   2          //  Threshold_UserSet[i] = EEPROM_Read(SENSE_ADDR+i);
 381   2          // }
 382   2          PowerStatus = EEPROM_Read(SENSE_ADDR+i);
 383   2        }
 384   1        else
 385   1        {
 386   2          
 387   2          PowerStatus = POWER_ST_VALUE;
 388   2          EEPROM_Write(POWRE_STATUS_ADDR, POWER_ST_VALUE);
 389   2          EEPROM_Write(INIT_ADDR, INIT_VALUE);
 390   2        }
 391   1      }


MODULE INFORMATION:   STATIC OVERLAYABLE
   CODE SIZE        =    786    ----
   CONSTANT SIZE    =   ----    ----
   XDATA SIZE       =   ----    ----
   PDATA SIZE       =   ----    ----
   DATA SIZE        =      4       3
   IDATA SIZE       =   ----    ----
   BIT SIZE         =      3    ----
END OF MODULE INFORMATION.


C51 COMPILATION COMPLETE.  0 WARNING(S),  0 ERROR(S)
